:020000040000FA
:060000002EEF37F01200A4
:0600080087EF0EF012006C
:06002A000600CF6E00008D
:100030007E03000004000000CB6E00007A03000085
:1000400004000000A96E00008902000022000000E8
:10005000A16E000072030000080000009F6E000007
:1000600082030000020000008A6E0000000300000E
:040070001500000077
:0C0074000401006B040E005D55E2005119
:10008000260DF3CF01F4F4CF02F4000E0127010E88
:10009000022301C4E9FF02C4EAFFEF6A01C4E9FFD9
:1000A00002C4EAFF250EE926000EEA22EF9001C401
:1000B000E9FF02C4EAFF250EE926000EEA22EF82DC
:1000C00001C4E9FF02C4EAFF250EE926000EEA2278
:1000D000EF8401C4E9FF02C4EAFF250EE926000E01
:1000E000EA22EF9801C4E9FF02C4EAFF250EE926DF
:1000F000000EEA22EF9601C4E9FF02C4EAFF0F0EE8
:10010000E926000EEA22EF6801C4E9FF02C4EAFF13
:10011000210EE926000EEA22700EEE6E170EEE6E2C
:10012000EE6AEE6A002BA8D70101986B040E996F56
:100130009A6B9B6B9C6B9D6B12000401006B040E11
:10014000005D5EE20051260DF3CF01F4F4CF02F41E
:10015000000E0127010E022301C4E9FF02C4EAFFD9
:10016000EF5000094BE101C4E9FF02C4EAFF010EB0
:10017000EF6E01C4E9FF02C4EAFF0B0E9EC1EBFF64
:100180000C0E9FC1EBFF01C4E9FF02C4EAFF0D0E94
:10019000EB6A0E0EEB6A01C4E9FF02C4EAFFEE52FD
:1001A000060EE926000EEA22EE6AEE6AEE6AEE6AB2
:1001B00001C4E9FF02C4EAFF250EE926000EEA2287
:1001C000EF8001C4E9FF02C4EAFF250EE926000E14
:1001D000EA22EF9601C4E9FF02C4EAFF0F0EE92606
:1001E000000EEA22EF6801C4E9FF02C4EAFF250E0F
:1001F000E926000EEA22EF8200511200002B9FD761
:10020000FE0C04010A6B076B040E075D16E2075132
:10021000260DF3CF08F4F4CF09F4000E0827010EE1
:10022000092308C4E9FF09C4EAFFEF50000903E10C
:10023000010E0A6F02D0072BE7D70A5101E1FE0C2D
:100240000101982B000E992308C4E9FF09C4EAFFB5
:100250000B0E98C1EBFF0C0E99C1EBFF880ED880F6
:100260009855130E995503E2986B040E996F08C4C4
:10027000E9FF09C4EAFF250EE926000EEA22EF9005
:1002800008C4E9FF09C4EAFF0D0EA2C1EBFF0E0E80
:10029000A3C1EBFF9A2B000E9B239C239D2308C434
:1002A000E9FF09C4EAFF140EE926000EEA229AC10A
:1002B000EEFF9BC1EEFF9CC1EEFF9DC1EEFF08C4A7
:1002C000E9FF09C4EAFF180EE926000EEA22EE6AE9
:1002D000EE6AEE6AEE6A0A0EE66EE66AA0C1E6FF14
:1002E000A1C1E6FF08C4E9FF09C4EAFFEE52E9CF65
:1002F00010F0EACF11F0E9CFE6FFEACFE6FFBBEC62
:1003000032F0126E060EE15E0101C86BC96B01018D
:10031000C7690101020EC66F08C4E9FF09C4EAFFFC
:10032000180EE926000EEA22EECFC2F1EECFC3F19D
:10033000EECFC4F1EFCFC5F108C4E9FF09C4EAFF6D
:10034000140EE926000EEA22EECFBEF1EECFBFF189
:10035000EECFC0F1EFCFC1F108C4E9FF09C4EAFF55
:100360000D0EE926000EEA22EECFBCF1EDCFBDF175
:1003700008C4E9FF09C4EAFF0B0EE926000EEA22D1
:10038000EECFBAF1EDCFBBF108C4E9FF09C4EAFF33
:10039000EE52E9CFB8F1EACFB9F10EEC07F008C49C
:1003A000E9FF09C4EAFF030EEF6E08C4E9FF09C4C0
:1003B000EAFF140EE926000EEA22EE2AEE22EE22D1
:1003C000EE220401075112000101A451260DF3CFC2
:1003D000E9FFF4CFEAFF000EE926010EEA22EF5012
:1003E000040801E0000C010C0101A551260DF3CF1A
:1003F000ABF4F4CFACF4000E0401AB27010EAC2338
:10040000ABC4E9FFACC4EAFFEF50040806E0ABC49C
:10041000D2F1ACC4D3F122EF0AF0A5C1AAF1BAD946
:100420000101C86BC96B0101C7690101110EC66FDB
:10043000ABC4E9FFACC4EAFF180EE926000EEA22BD
:10044000EECFC2F1EECFC3F1EECFC4F1EFCFC5F1E5
:10045000ABC4E9FFACC4EAFF140EE926000EEA22A1
:10046000EECFBEF1EECFBFF1EECFC0F1EFCFC1F1D5
:10047000ABC4E9FFACC4EAFF0D0EE926000EEA2288
:10048000EECFBCF1EDCFBDF1ABC4E9FFACC4EAFFE8
:100490000B0EE926000EEA22EECFBAF1EDCFBBF14A
:1004A000ABC4E9FFACC4EAFFEE52E9CFB8F1EACF42
:1004B000B9F10EEC07F0ABC4E9FFACC4EAFF140ECF
:1004C000E926000EEA22EE2AEE22EE22EE22ABC44C
:1004D000E9FFACC4EAFF050EEF6E12000101A65160
:1004E000260DF3CFAFF4F4CFB0F4000E0401AF2724
:1004F000010EB023AFC4E9FFB0C4EAFF0F0EEB500A
:10050000FF0801E1000CAFC4E9FFB0C4EAFF250E0B
:10051000E926000EEA22EF50020B01E1000CAFC405
:10052000E9FFB0C4EAFF100EE926000EEA22EECF82
:10053000C8F1EDCFC9F1AFC4E9FFB0C4EAFF0F0EB7
:10054000EB500101C76F0101100EC66F180EE926AE
:10055000000EEA22EECFC2F1EECFC3F1EECFC4F12E
:10056000EFCFC5F1AFC4E9FFB0C4EAFF140EE9262E
:10057000000EEA22EECFBEF1EECFBFF1EECFC0F11A
:10058000EFCFC1F1AFC4E9FFB0C4EAFF0D0EE92619
:10059000000EEA22EECFBCF1EDCFBDF1AFC4E9FF12
:1005A000B0C4EAFF0B0EE926000EEA22EECFBAF144
:1005B000EDCFBBF1AFC4E9FFB0C4EAFFEE52E9CF23
:1005C000B8F1EACFB9F10EEC07F0AFC4E9FFB0C45F
:1005D000EAFF100EE926000EEA22EECF10F0EFCF70
:1005E00011F0126A136AAFC4E9FFB0C4EAFF140E37
:1005F000E926000EEA221050EE261150EE2212508B
:10060000EE221350EE22AFC4E9FFB0C4EAFF250E7C
:10061000E926000EEA22EF92AFC4E9FFB0C4EAFF78
:10062000250EE926000EEA22EF98AFC4E9FFB0C418
:10063000EAFF0F0EEB500101EA6F4BEC1BF0AFC469
:10064000E9FFB0C4EAFF0F0EE926000EEA22EF68C8
:10065000AFC4E9FFB0C4EAFF250EE926000EEA2286
:10066000EF82010C0101A751260DF3CFE9FFF4CF72
:10067000EAFF000EE926010EEA220F0EE926000E1F
:10068000EA22EF50FF0802E172EF1AF0A751260D9F
:10069000F3CFE9FFF4CFEAFF000EE926010EEA22CC
:1006A000250EE926000EEA22EF50020B01E0010EB2
:1006B00012000101A851260DF3CFADF4F4CFAEF432
:1006C000000E0401AD27010EAE23ADC4E9FFAEC498
:1006D000EAFF0F0EEB50FF0826E1ADC4E9FFAEC400
:1006E000EAFF0F0EDFC1EBFFADC4E9FFAEC4EAFFC6
:1006F000EB500101E96F3DEC1BF0ADC4E9FFAEC466
:10070000EAFF100EEB6A110EEB6A280E0101FD6F75
:10071000FE6BADC4E9FFAEC4EAFF0F0EEB50010162
:10072000FC6F6DEC1DF0ADC4E9FFAEC4EAFF100E26
:10073000E926000EEA22EECFABF4EDCFACF40401D3
:10074000CA0EAB5D030EAC5901E3000CADC4E9FF6A
:10075000AEC4EAFF250EE926000EEA22EF88A9C101
:10076000E0F179EC1AF00401AB2B000EAC23ADC420
:10077000E9FFAEC4EAFF100EABC4EBFF110EACC430
:10078000EBFFCA0EAB5D030EAC5903E3A8C1A6F1A3
:10079000A5DE010C0101AA51260DF3CF65F4F4CFBB
:1007A00066F4000E04016527010E662365C4E9FFA7
:1007B00066C4EAFF250EE926000EEA22EF50080B78
:1007C00001E1000C5CEC1BF065C4E9FF66C4EAFFC4
:1007D000250EE926000EEA22EF96010C0101AB512D
:1007E000260DF3CF00F4F4CF01F4000E040100272E
:1007F000010E012300C4E9FF01C4EAFF250EE9262A
:10080000000EEA22EF50080B2DE000C4E9FF01C4FE
:10081000EAFF250EE926000EEA22EF50040B0FE056
:10082000280E0101FA6FFB6B5AEC1DF000C4E9FFC2
:1008300001C4EAFF250EE926000EEA22EF9400C467
:10084000E9FF01C4EAFF250EE926000EEA22EF883F
:10085000AEC1E7F1AFC1E8F1ACC1E5F1ADC1E6F180
:10086000FDEF1AF0F36AF46A12000101B051260D8F
:10087000F3CF65F4F4CF66F4000E04016527010E92
:10088000662365C4E9FF66C4EAFF250EE926000E6B
:10089000EA22EF50080B43E065C4E9FF66C4EAFFB3
:1008A000250EE926000EEA22EF50040B0FE0280E79
:1008B0000101FA6FFB6B5AEC1DF065C4E9FF66C4D9
:1008C000EAFF250EE926000EEA22EF9465C4E9FF4F
:1008D00066C4EAFF120EE926000EEA22EE50ED1081
:1008E0000CE15CEC1BF065C4E9FF66C4EAFF250E71
:1008F000E926000EEA22EF96000C65C4E9FF66C403
:10090000EAFF120EE926000EEA22EE06EF5AE5ECA7
:100910001AF0B1C1E9FFB2C1EAFFEF6E010C000CA1
:100920000101B351260DF3CFE9FFF4CFEAFF000E2A
:10093000E926010EEA22250EE926000EEA22EF50F2
:10094000080B01E0010E120004010F6B006B040E96
:10095000005D01E35CD10051260DF3CF09F4F4CF23
:100960000AF4000E0927010E0A2309C4E9FF0AC48C
:10097000EAFF250EE926000EEA22EF50080B01E0FF
:1009800043D109C4E9FF0AC4EAFF250EE926000E97
:10099000EA22EF50100B01E037D109C4E9FF0AC485
:1009A000EAFFEF50000901E12FD109C4E9FF0AC4B1
:1009B000EAFFEF5001080CE109C4E9FF0AC4EAFFAD
:1009C000250EE926000EEA22EF50010B01E01CD1B2
:1009D00008EC37F006C005F407C006F408C007F4B9
:1009E00009C008F409C4E9FF0AC4EAFF1D0EE9269C
:1009F000000EEA22EE500401065C016FEE5007582B
:100A0000026FEE500858036FEE500958046F09C486
:100A1000E9FF0AC4EAFF210EE926000EEA2201518D
:100A2000EE5C0251EE580351EE580451EE5801E3CA
:100A3000EBD072EC1AF0000901E1120008EC37F07B
:100A400006C010F007C011F008C012F009C013F082
:100A500009C4E9FF0AC4EAFF1D0EE926000EEA22D6
:100A600006C0EEFF11C0EEFF12C0EEFF13C0EEFF96
:100A700009C4E9FF0AC4EAFF210EE926000EEA22B2
:100A8000EE2AEE22EE22EE2209C4E9FF0AC4EAFFB2
:100A90001C0EE926000EEA22EF2A09C4E9FF0AC467
:100AA000EAFFEF50060A31E0010A2FE0020A22E0D5
:100AB0000F0A20E00E0A14E0060A05E0010A37E1F9
:100AC0000401020E33D009C4E9FF0AC4EAFF1C0E78
:100AD000EB50106E030E105C20E20401120E26D0C3
:100AE0000401110E0F6F09C4E9FF0AC4EAFF050EE5
:100AF000EF6E1DD009C4E9FF0AC4EAFF1C0EEB50DB
:100B000003080BE30401010E11D009C4E9FF0AC474
:100B1000EAFF1C0EEB50030807E209C4D2F10AC435
:100B2000D3F122EC0AF003D00401100E0F6F040180
:100B30000F51000869E2100E0F5D15E009C4E9FFCE
:100B40000AC4EAFF140EE926000EEA22EFCF0BF4E6
:100B5000EE2AEFCF0CF4EE22EFCF0DF4EE22EFCF22
:100B60000EF4EF2210D009C4E9FF0AC4EAFF140E04
:100B7000E926000EEA22EECF0BF4EECF0CF4EECF16
:100B80000DF4EFCF0EF40101C86BC96B0101C76909
:100B90000FC4C6F109C4E9FF0AC4EAFF180EE9262A
:100BA000000EEA22EECFC2F1EECFC3F1EECFC4F1D8
:100BB000EFCFC5F10BC4BEF10CC4BFF10DC4C0F141
:100BC0000EC4C1F109C4E9FF0AC4EAFF0D0EE9260B
:100BD000000EEA22EECFBCF1EDCFBDF109C4E9FF72
:100BE0000AC4EAFF0B0EE926000EEA22EECFBAF1A4
:100BF000EDCFBBF109C4E9FF0AC4EAFFEE52E9CF29
:100C0000B8F1EACFB9F10AD90401002BA0D612003D
:100C1000140E0101E76FE86B0101000EE56F040E91
:100C2000E66FFDEC1AF00101000ED06F040ED16FDB
:100C30002EDBB4C1E9FFB5C1EAFF060EE926000EBE
:100C4000EA22EECF14F4EECF15F4EECF16F4EFCF88
:100C500017F400C218F401C219F402C21AF403C254
:100C60001BF404011C6B060E1D6FB6C11EF4B7C148
:100C70001FF4B6C15FF3B7C160F385EC33F0F3CF77
:100C80001EF4F4CF1FF40C0E0301676F686B0301B1
:100C9000140E656F040E666FE5EC33F0F3CF21F4AC
:100CA000F4CF22F40401211F221F240E0101FA6F48
:100CB000FB6B5AEC1DF021C4E0F179EC1AF022C470
:100CC000E0F179EC1AF0140E0101FA6FFB6B5AECAB
:100CD0001DF0B6C1CAF1B7C1CBF1A1D9F3CF21F450
:100CE000F4CF22F404011051F31802E1115122193A
:100CF00003E05CEC1BF0010C0C51F00BE842E84205
:100D0000E842E842040DF350106E116A140E105EB2
:100D1000000E115A10C023F41050106E116AE850E2
:100D20000101B65DB66F1150B759B76F140EB65FBB
:100D3000000EB75B04010C51F00BE842E842E842B8
:100D4000E842040DF3500101FA6FFB6B140EFA2711
:100D5000000EFB235AEC1DF0B4C1CEF1B5C1CFF1AA
:100D60000101000ECC6F040ECD6F91D90401206FEC
:100D7000FE0E205D11E2B6C1D9F1B7C1DAF1010171
:100D8000000ED76F040ED86FB4C1D5F1B5C1D6F13E
:100D900020C4D4F1D5DB010C5CEC1BF0FF0E040188
:100DA000205D3BE10101B651040108270101B75163
:100DB00004010923000E0A230B230D51020B03E14A
:100DC0000D51010B05E0082B000E09230A230B230C
:100DD0000101C86BC96B0101C7690101040EC66F2F
:100DE00004C4C2F105C4C3F106C4C4F107C4C5F10B
:100DF00008C4BEF109C4BFF10AC4C0F10BC4C1F1FB
:100E000000C4BCF101C4BDF102C4BAF103C4BBF11A
:100E1000B4C1B8F1B5C1B9F101D8010C72EC1AF046
:100E20000009FCE0BAC167F4BBC168F4BCC169F455
:100E3000BDC16AF4BEC16BF4BFC16CF4C0C16DF436
:100E4000C1C16EF4C2C16FF4C3C170F4C4C171F406
:100E5000C5C172F404017391739373957397C6C1FE
:100E600074F47AEC1BF0F3CF75F4F4CF76F404014C
:100E7000000EF35C040EF45804E3756B040E766FF9
:100E80000DD0360ED8807555000E765505E2360E1B
:100E9000755F000E765B02D0756B766B776B786B47
:100EA000796B7A6B0101670ED06F040ED16FEFD9A9
:100EB000140E0101C827000EC923C6A30ED0040ECC
:100EC000C827000EC9230401020E7B6F040E7C6F3D
:100ED0007D6F7E6B7399738B03D004017389739B51
:100EE000738D739F00C27FF401C280F402C281F44B
:100EF00003C282F4B8C1E9FFB9C1EAFF060EE926D0
:100F0000000EEA22EECF83F4EECF84F4EECF85F428
:100F1000EFCF86F4876B060E886FC8C189F4C9C10C
:100F20008AF4C8C15FF3C9C160F385EC33F0F3CF35
:100F300089F4F4CF8AF40C0E0301676F686B030128
:100F40007F0E656F040E666FE5EC33F0F3CF77F438
:100F5000F4CF78F40401771F781F77C465F478C460
:100F600066F4FF0E0101C75D02E1DFC1C7F1140E97
:100F70000101FD6FFE6BC7C1FCF16DEC1DF0C8C136
:100F800051F3C9C152F30301060E506FB8C14EF3BD
:100F9000B9C14FF31CEC2AF0140E0101E36FE46BAE
:100FA0000101670EE16F040EE26F93EC1AF001018C
:100FB000C6A30BD0040E0101E36FE46B01017B0EAD
:100FC000E16F040EE26F93EC1AF0140E0101FD6F55
:100FD000FE6BC7C1FCF16DEC1DF0C8C1CAF1C9C1FF
:100FE000CBF11DD8F3CF65F4F4CF66F4240E0101E4
:100FF000FD6FFE6BC7C1FCF16DEC1DF066C4E0F146
:1010000079EC1AF065C4E0F179EC1AF00101FD6B9E
:10101000FE6BC7C1FCF16DEC1DF0D6EF1CF00401B6
:10102000010E8B6F8C6B8D6B0101CAC110F0CBC1AF
:1010300011F0CA07000ECB5B1050111020E0E5EC58
:101040001AF004018E6F8B510AE18E518C258C6F42
:101050008E518C5D0DE28D2B0BE18C2B09D08E51C6
:101060008D258D6F8E518D5D03E28C2B01E18D2BD3
:101070008B5102E0000E01D0010E8B6FD5D7040119
:101080008D1D8D6F8C1DF36E8DC4F4FF1200040155
:10109000FE0E276F266B040E265D01E37FD02651DE
:1010A000260DF3CF24F4F4CF25F4000E2427010EEF
:1010B000252324C4E9FF25C4EAFFEF5000096BE0B3
:1010C00024C4E9FF25C4EAFF0B0EE926000EEA223C
:1010D000EECF10F0EFCF11F0CCC1E9FFCDC1EAFFA8
:1010E000020EE926000EEA22EECF12F0EFCF13F047
:1010F0001250101850E1135011184DE124C4E9FFAB
:1011000025C4EAFFEF50010802E126C427F424C4F5
:10111000E9FF25C4EAFF0D0EE926000EEA22EECF14
:1011200010F0EFCF11F0CCC1E9FFCDC1EAFFEECF57
:1011300012F0EFCF13F0125010182DE113501118C8
:101140002AE1CEC1E9FFCFC1EAFF060EE926000E73
:10115000EA22EECF14F0EECF15F0EECF16F0EFCF7F
:1011600017F024C4E9FF25C4EAFFEE52060EE92673
:10117000000EEA22EE50000114180DE1EE50151891
:101180000AE1EE50161807E1EE50171804E103E1EA
:101190000401265112000401262B7DD72751260D6C
:1011A000F3CF24F4F4CF25F4000E2427010E2523D9
:1011B000FE0E275D67E024C4E9FF25C4EAFFEF5077
:1011C000010860E10A0EE66EE66ACEC1E6FFCFC115
:1011D000E6FF24C4E9FF25C4EAFFEE52E9CF10F090
:1011E000EACF11F0E9CFE6FFEACFE6FFBBEC32F041
:1011F000126E060EE15E1250CCC1E9FFCDC1EAFFCE
:10120000020EE926000EEA22EECF10F0EFCF11F029
:1012100024C4E9FF25C4EAFF0B0E10C0EBFF0C0E3F
:1012200011C0EBFFCCC1E9FFCDC1EAFFEECF10F05A
:10123000EFCF11F024C4E9FF25C4EAFF0D0E10C062
:10124000EBFF0E0E11C0EBFF24C4E9FF25C4EAFF3B
:10125000250EE926000EEA22EF9624C4E9FF25C4F4
:10126000EAFF0F0EE926000EEA22EF6824C4E9FF28
:1012700025C4EAFF250EE926000EEA22EF820401CA
:1012800027511200FE0E275D01E1FF0CFE0CD0C1BC
:10129000E9FFD1C1EAFFEECF5FF3EDCF60F385EC5C
:1012A00033F0F3CF10F0F4CF11F0D0C1E9FFD1C18A
:1012B000EAFFF3CFEEFF11C0EDFFD0C1E9FFD1C1CE
:1012C000EAFF020EE926000EEA22EECF5FF3EDCF31
:1012D00060F385EC33F0F3CF10F0F4CF11F0D0C110
:1012E000E9FFD1C1EAFF020EF3CFEBFF030E11C0FD
:1012F000EBFFD0C1E9FFD1C1EAFF040EE926000EE1
:10130000EA22EECF61F3EECF62F3EECF63F3EFCFDD
:1013100064F38AEC33F006C010F007C011F008C087
:1013200012F009C013F0D0C1E9FFD1C1EAFF040EE9
:10133000E926000EEA2206C0EEFF11C0EEFF12C041
:10134000EEFF13C0EEFFD0C1E9FFD1C1EAFF080EE6
:10135000E926000EEA22EECF61F3EECF62F3EECF84
:1013600063F3EFCF64F38AEC33F006C010F007C0EC
:1013700011F008C012F009C013F0D0C1E9FFD1C1CB
:10138000EAFF080EE926000EEA2206C0EEFF11C0B1
:10139000EEFF12C0EEFF13C0EEFFD0C1E9FFD1C1D6
:1013A000EAFF0E0EE926000EEA22EECF5FF3EDCF44
:1013B00060F385EC33F0F3CF10F0F4CF11F0D0C12F
:1013C000E9FFD1C1EAFF0E0EF3CFEBFF0F0E11C004
:1013D000EBFFD0C1E9FFD1C1EAFF100EE926000EF4
:1013E000EA22EECF5FF3EDCF60F385EC33F0F3CF7D
:1013F00010F0F4CF11F0D0C1E9FFD1C1EAFF100E17
:10140000F3CFEBFF110E11C0EBFFD0C1E9FFD1C14B
:10141000EAFF120EE926000EEA22EECF5FF3EDCFCF
:1014200060F385EC33F0F3CF10F0F4CF11F0D0C1BE
:10143000E9FFD1C1EAFF120EF3CFEBFF130E11C08B
:10144000EBFF1200D2C1E9FFD3C1EAFF0F0EEB5050
:10145000FF081CE0D2C1E9FFD3C1EAFF0F0EEB5039
:101460000101EA6F4BEC1BF0D2C1E9FFD3C1EAFFE7
:101470000F0EE926000EEA22EF68D2C1E9FFD3C1C0
:10148000EAFF250EE926000EEA22EF82D2C1E9FF2B
:10149000D3C1EAFFEE52060EE926000EEA22EE6AFA
:1014A000EE6AEE6AEE6AD2C1E9FFD3C1EAFF0D0E21
:1014B000EB6A0E0EEB6AD2C1E9FFD3C1EAFF250E3B
:1014C000E926000EEA22EF50080B02E05CEC1BF06C
:1014D000D2C1E9FFD3C1EAFF250EE926000EEA22B8
:1014E000EF96D2C1E9FFD3C1EAFF210EE926000E33
:1014F000EA22700EEE6E170EEE6EEE6AEE6AD2C142
:10150000E9FFD3C1EAFF250EE926000EEA22EF9893
:10151000D2C1E9FFD3C1EAFF250EE926000EEA2277
:10152000EF50010B07E0D2C1E9FFD3C1EAFF010E82
:10153000EF6E1200D2C1E9FFD3C1EAFFEF6A1200D9
:101540000401366B0101D451260DF3CF34F4F4CFEE
:1015500035F4000E04013427010E352334C4E9FFAD
:1015600035C4EAFF180EE926000EEA22EECF2CF46D
:10157000EECF2DF4EECF2EF4EFCF2FF434C4E9FFED
:1015800035C4EAFF140EE926000EEA22EECF30F44D
:10159000EECF31F4EECF32F4EFCF33F4D7C1E9FF21
:1015A000D8C1EAFF040EE926000EEA22EECF24F4A9
:1015B000EECF25F4EECF26F4EFCF27F40101D95179
:1015C000040124270101DA5104012523000E2623FA
:1015D000272334C4E9FF35C4EAFF140EE926000EC0
:1015E000EA22EECF28F4EECF29F4EECF2AF4EFCFA3
:1015F0002BF434C4E9FF35C4EAFF1C0EE926000EC3
:10160000EA22EF6A08EC37F006C010F007C011F0CC
:1016100008C012F009C013F034C4E9FF35C4EAFF72
:101620001D0EE926000EEA2206C0EEFF11C0EEFFF5
:1016300012C0EEFF13C0EEFF34C4E9FF35C4EAFF69
:10164000210EE926000EEA22700EEE6E170EEE6EE7
:10165000EE6AEE6A34C4E9FF35C4EAFFEF500108D0
:1016600001E0B0D05CEC1BF001019A2B000E9B2333
:101670009C239D2334C4E9FF35C4EAFF140EE926F8
:10168000000EEA229AC1EEFF9BC1EEFF9CC1EEFF65
:101690009DC1EEFF0401242B25232623272334C4D8
:1016A000E9FF35C4EAFF180EE926000EEA2224C439
:1016B000EEFF25C4EEFF26C4EEFF27C4EEFF34C4C0
:1016C000E9FF35C4EAFF140EE926000EEA22EECF48
:1016D00028F4EECF29F4EECF2AF4EFCF2BF434C464
:1016E000E9FF35C4EAFF140EE926000EEA22EE2ACD
:1016F000EE22EE22EE22D7C1E9FFD8C1EAFF0D0E9D
:10170000E926000EEA22EF50020B35E00A0EE66EE3
:10171000E66AD5C1E6FFD6C1E6FF34C4E9FF35C4A9
:10172000EAFFEE52E9CF10F0EACF11F0E9CFE6FF81
:10173000EACFE6FFBBEC32F0126E060EE15E12500D
:10174000D7C1E9FFD8C1EAFFEECF10F0EFCF11F01B
:1017500034C4E9FF35C4EAFF0D0E10C0EBFF0E0ED6
:1017600011C0EBFF0401120E366F34C4E9FF35C41B
:10177000EAFF020E77D2040E366F24C428F425C483
:1017800029F426C42AF427C42BF4D7C1E9FFD8C111
:10179000EAFFE926000EEA22EECF24F4EECF25F48C
:1017A000EECF26F4EFCF27F434C4E9FF35C4EAFFC7
:1017B000EE52060EE926000EEA22EE6AEE6AEE6AA4
:1017C000EE6A6FD2D7C1E9FFD8C1EAFF0D0EE92654
:1017D000000EEA22EF50040B08E05CEC1BF034C46E
:1017E000D2F135C4D3F122EF0AF0D7C1E9FFD8C155
:1017F000EAFF080EE926000EEA2204012851EE183D
:1018000001E04DD22951EE1801E049D22A51EE18DB
:1018100001E045D22B51EE1801E041D201E03FD268
:1018200034C4E9FF35C4EAFFEF5002084DE1D7C1E7
:10183000E9FFD8C1EAFF0D0EE926000EEA22EF50BB
:10184000100B01E12CD234C4E9FF35C4EAFF180EB5
:10185000E926000EEA2224C4EEFF25C4EEFF26C4CA
:10186000EEFF27C4EEFF34C4E9FF35C4EAFF1C0EC7
:10187000E926000EEA22EF6A08EC37F006C010F005
:1018800007C011F008C012F009C013F034C4E9FF1A
:1018900035C4EAFF1D0EE926000EEA2206C0EEFF5F
:1018A00011C0EEFF12C0EEFF13C0EEFF34C4E9FF1B
:1018B00035C4EAFF040EEF6E0101000ED880D95541
:1018C000000EDA5563E3EBD134C4E9FF35C4EAFF17
:1018D000EF50030801E077D0D7C1E9FFD8C1EAFF94
:1018E0000D0EE926000EEA22EF50020B01E1D7D1DE
:1018F000242B000E25232623272334C4E9FF35C4D7
:10190000EAFF180EE926000EEA2224C4EEFF25C4E1
:10191000EEFF26C4EEFF27C4EEFFD7C1E9FFD8C112
:10192000EAFF0D0EE926000EEA22EF50100B09E047
:10193000100E366F34C4E9FF35C4EAFF040EEF6EB3
:101940001DD0120E366F34C4E9FF35C4EAFF020E13
:10195000EF6E282B000E29232A232B2334C4E9FF02
:1019600035C4EAFF140EE926000EEA2228C4EEFF71
:1019700029C4EEFF2AC4EEFF2BC4EEFF0101000EC6
:10198000D880D955000EDA5501E389D134C4E9FF76
:1019900035C4EAFF250EE926000EEA22EF8634C49C
:1019A000E9FF35C4EAFF120ED9C1EBFF130EDAC10D
:1019B000EBFF34C4E9FF35C4EAFF250EE926000E2B
:1019C000EA22EF846ED1D7C1E9FFD8C1EAFF040E45
:1019D000E926000EEA22EECF10F0EECF11F0EECFA6
:1019E00012F0EFCF13F034C4E9FF35C4EAFF180E4C
:1019F000E926000EEA221050EE1808E11150EE1808
:101A000005E11250EE1802E11350EE1802E05CEF0F
:101A10001BF034C4E9FF35C4EAFF180EE926000EB6
:101A2000EA2224C4EEFF25C4EEFF26C4EEFF27C43D
:101A3000EEFF34C4E9FF35C4EAFFEF50040801E0CB
:101A4000C1D0D7C1E9FFD8C1EAFF0D0EE926000ECB
:101A5000EA22EF50100B24E034C4E9FF35C4EAFF5A
:101A60000F0EEB50FF081CE034C4E9FF35C4EAFF59
:101A70000F0EEB500101EA6F4BEC1BF034C4E9FF91
:101A800035C4EAFF0F0EE926000EEA22EF6834C4DF
:101A9000E9FF35C4EAFF250EE926000EEA22EF82AF
:101AA000D7C1E9FFD8C1EAFF0D0EE926000EEA22F0
:101AB000EF50010B31E00401110E366F34C4E9FF21
:101AC00035C4EAFF140EE926000EEA22EFCF28F40F
:101AD000EE2AEFCF29F4EE22EFCF2AF4EE22EFCF59
:101AE0002BF4EF2234C4E9FF35C4EAFF180EE926CF
:101AF000000EEA22EF2AEECF24F4EF22EECF25F4F7
:101B0000EF22EECF26F4EF22EFCF27F434C4E9FF23
:101B100035C4EAFF0A0EEF6E0101000ED880D955D8
:101B2000000EDA5501E3BBD034C4E9FF35C4EAFF47
:101B3000250EE926000EEA22EF50080B20E134C4FE
:101B4000E9FF35C4EAFF250EE926000EEA22EF86FA
:101B500034C4E9FF35C4EAFF120ED9C1EBFF130EFE
:101B6000DAC1EBFF34C4E9FF35C4EAFF250EE926EC
:101B7000000EEA22EF840401100E366F92D00401A9
:101B8000366B34C4E9FF35C4EAFF140EE926000EB3
:101B9000EA2230C4EEFF31C4EEFF32C4EEFF33C49C
:101BA000EEFF34C4E9FF35C4EAFF180EE926000E43
:101BB000EA222CC4EEFF2DC4EEFF2EC4EEFF2FC48C
:101BC000EEFF6DD034C4E9FF35C4EAFFEF500A08D8
:101BD0000EE15CEC1BF0D7C1E9FFD8C1EAFF0D0EA6
:101BE000E926000EEA22EF50100B5BE051D034C41E
:101BF000E9FF35C4EAFFEF50050836E15CEC1BF065
:101C0000D7C1E9FFD8C1EAFF0D0EE926000EEA228E
:101C1000EF50010B46E00401100E366F34C4E9FFAB
:101C200035C4EAFF180EE926000EEA22EF2AEECFAD
:101C300024F4EF22EECF25F4EF22EECF26F4EF22AC
:101C4000EFCF27F4D7C1E9FFD8C1EAFF0D0EE9268F
:101C5000000EEA22EF50100B1BE134C4E9FF35C43B
:101C6000EAFF060EEF6E1DD034C4E9FF35C4EAFF6B
:101C7000EF50060816E15CEC1BF0D7C1E9FFD8C1B4
:101C8000EAFF0D0EE926000EEA22EF50100B09E0E4
:101C900034C4D2F135C4D3F122EC0AF002D05CECAA
:101CA0001BF004013651000831E20101C86BC96B19
:101CB0000101C76936C4C6F124C4C2F125C4C3F109
:101CC00026C4C4F127C4C5F128C4BEF129C4BFF19C
:101CD0002AC4C0F12BC4C1F1D7C1E9FFD8C1EAFFC2
:101CE000EECFBCF1EDCFBDF1D7C1E9FFD8C1EAFF1E
:101CF000020EE926000EEA22EECFBAF1EDCFBBF1DB
:0E1D0000D5C1B8F1D6C1B9F10EEC07F0120052
:021D0E00DACF2A
:101D1000E4FFE2CFDAFFE9CFE4FFEACFE4FFF6CF5A
:101D2000E4FFF7CFE4FFF5CFE4FFF3CFE4FFF4CF18
:101D3000E4FFFACFE4FF00EE00F0100EE80403E346
:101D4000EECFE4FFFBD700EE10F0080EE80403E34B
:101D5000EECFE4FFFBD7E65211EC37F0E55200EE90
:101D600017F0080EE80403E3E5CFEDFFFBD700EE24
:101D70000FF0100EE80403E3E5CFEDFFFBD7E5CF4E
:101D8000FAFFE5CFF4FFE5CFF3FFE5CFF5FFE5CFB1
:101D9000F7FFE5CFF6FFE5CFEAFFE5CFE9FFE5CFB7
:101DA000DAFF1100ACA2FED71DC2ADFF1200020186
:101DB0001EC2E9FF1FC2EAFF1E2B000E1F23EFCF3A
:101DC00008F4EF5004E008C41DF2ECDFF0D7120075
:101DD000A7DAFFEC36F05FEC2EF0B8DA81BA02D069
:101DE000A2EC13F08CEC30F08BEC14F023EC25F02B
:101DF000020118A10DD00201C00EF96FA0EC34F061
:101E000002013E0EFC6F630EFD6FE4EC34F006D071
:101E10000301010E006F0301070E7A6F08EC37F023
:101E200003010151065C106E02510758116E0351F7
:101E30000858126E04510958136E320E105C000ED1
:101E40001158000E1258000E13580BE308EC37F02F
:101E500006C001F307C002F308C003F309C004F38E
:101E6000897897EC30F0B7EC14F032EC25F00301F0
:101E7000005103017D5DD2E00201226B0201000EE0
:101E8000206F020E216F03D87DC300F3C7D7020174
:101E900022510CE00201C00EF96FA0EC34F00201F7
:101EA0005E0EFC6F630EFD6FE4EC34F00201C00EB9
:101EB000F96FA0EC34F0000EE66E040EE66E20C260
:101EC000E9FF21C2EAFFEF50E66EE66AF2EC2FF07E
:101ED000E552E552E552E552020122510DE00201C0
:101EE000000EFA6F040EFB6FD3EC34F002012E0EDD
:101EF000FE6FF6EC34F00AD00201000E1E6F040EE5
:101F00001F6F55DF02012E0E1D6F4CDF000EE66EB7
:101F1000040EE66E20C2E9FF21C2EAFF010EE926A7
:101F2000000EEA22EF50E66EE66AF2EC2FF0E55280
:101F3000E552E552E552020122510DE00201000E88
:101F4000FA6F040EFB6FD3EC34F002012E0EFE6F1D
:101F5000F6EC34F00AD00201000E1E6F040E1F6F63
:101F600026DF02012E0E1D6F1DDF000EE66E040E31
:101F7000E66E20C2E9FF21C2EAFF020EE926000E4A
:101F8000EA22EF50E66EE66AF2EC2FF0E552E552F7
:101F9000E552E552020122510DE00201000EFA6FF6
:101FA000040EFB6FD3EC34F002012E0EFE6FF6EC44
:101FB00034F00AD00201000E1E6F040E1F6FF7DE10
:101FC00002012E0E1D6FEEDE000EE66E040EE66EB2
:101FD00020C2E9FF21C2EAFF030EE926000EEA2231
:101FE000EF50E66EE66AF2EC2FF0E552E552E5526C
:101FF000E5520201225107E00201000EFA6F040EC1
:10200000FB6FD3EF34F00201000E1E6F040E1F6F42
:10201000D7EF0EF0810EC26E0401640E006F005106
:1020200000070009FCE1C284C2B4FED7C3CF00F4AC
:10203000C4CF01F4230EE66E020EE66E00C4E6FF86
:1020400001C4E6FFF2EC2FF0E552E552E552E5520D
:1020500000C402F401C403F40401046B056B880E90
:102060000B6E130E0C6E0D6A0E6A00C406F001C4EE
:1020700007F004C408F005C409F06FEC36F002C0A4
:1020800002F403C003F404C004F405C005F40B6AB1
:10209000040E0C6E0D6A0E6A02C006F003C007F053
:1020A00004C008F005C009F0A7EC36F006C002F441
:1020B00007C003F408C004F409C005F40A0E0B6E4F
:1020C0000C6A0D6A0E6AA7EC36F006C002F407C06F
:1020D00003F408C004F409C005F42B0EE66E020EEA
:1020E000E66E06C0E6FF07C0E6FFF2EC2FF0E55211
:1020F000E552E552E55204010535000E051909E6E1
:10210000D880630E0255000E0355000E0455000ED4
:10211000055509E202012F6B2DC22EF22CC22DF2C1
:102120002E0E2C6F12000535000E051909E6D88019
:10213000090E0255000E0355000E0455000E0555FC
:1021400007E202012F6B2CC22EF22BC22DF206D019
:1021500002012F6B2BC22EF2300E2D6F2E0E2C6F24
:10216000300E2B6F120033C2E9FF34C2EAFFEE508B
:10217000EFCFEAFFE96EEF50D00F0401656FE85032
:10218000010A55E0010A38E1020E0201EA6A33252C
:10219000E96E3451EA22EE50EFCFEAFFE96EEF50DC
:1021A000D00F0401666FE850010A09E0010A08E156
:1021B000897689A602D0899403D0898401D08B7254
:1021C0000D0EE66EE66A6F0E106E630E116E126AE9
:1021D00010C0E6FFE66E12C0E6FF33C2E9FF34C26C
:1021E000EAFFEECFE6FFEFCFE6FFE6EC32F0136E4C
:1021F000070EE15E135012000A0EE66EE66A7C0ED0
:10220000106E630E116E126A10C0E6FFE66E12C009
:10221000E6FF33C2E9FF34C2EAFFEECFE6FFEFCFBD
:10222000E6FFE6EC32F0136E070EE15E135012008B
:10223000020136510A0A33E0030A2DE0010A28E0C0
:102240000F0A23E0010A1EE0030A19E0010A14E064
:10225000070A0FE0010A0AE0030A05E0010A29E182
:1022600080B01FD01AD080A218D01BD080A415D067
:1022700018D080A612D015D080AA0FD012D081AC71
:102280000CD00FD081AE09D00CD082A006D009D0DE
:1022900082A203D006D082B404D0300E05D082AA28
:1022A00002D0310E01D0300E39C2E9FF3AC2EAFF46
:1022B000EF6EF368F4681200030EE66EE66A860EAF
:1022C000106E630E116E126A10C0E6FFE66E12C049
:1022D000E6FF3BC2E6FF3CC2E6FF9CEC32F0136E29
:1022E000070EE15E135000091AE1090EE66EE66A78
:1022F0008A0E106E630E116E126A10C0E6FFE66E53
:1023000012C0E6FF3DC2E6FF3EC2E6FF9CEC32F0A3
:10231000136E070EE15E1350000901E1010C000C81
:10232000C26A070EC16EEF0E926E938C938E9480EC
:1023300094829484948AF18E200EAC6E900EAB6ED3
:102340000F0EAF6ED56AF28EF28C120002010A0EE9
:10235000006F016F050E026F0F0E036F0A690B69A4
:102360000C690D6B0A0E0E6F0F6F050E106F0F0EBE
:10237000116F046B040E056FA30E066F076B086BDD
:10238000096B18810401000E046F020E056F030132
:102390002B6B2C6B0301A00E2A6F64EC2CF0C0ECAD
:1023A0002CF00401036FC9EC2CF0550E0401035D01
:1023B00025E1010E03012B6F2C6B0301A00E2A6F88
:1023C00064EC2CF00401036B0351106E116A1D0EB6
:1023D000105C000E115810E2C0EC2CF0E66E040107
:1023E00004C4E9FF05C4EAFF042B000E0523E552EF
:1023F000E750EF6E032BE8D7C9EF2CF000EF12F097
:102400000401000E016F020E026F0301286B296B9D
:102410000301A00E276F1FEC2CF00301550E2D6F4A
:1024200098EC2CF00401006B0051106E116A1D0E27
:10243000105C000E11580EE201C4E9FF02C4EAFF6D
:10244000012B000E0223EFCF2DF398EC2CF00401AA
:10245000002BEAD7B3EF2CF002013FC2F6FF40C2D7
:10246000F7FF3F2B000E40230800F5CF00F4F55096
:1024700004E000C41DF296DCEFD712000401016BEA
:102480009EAAFED7AECF00F40D0E0401005D17E04A
:102490000A0E005D14E0012B020141C2E9FF42C2B5
:1024A000EAFF412B000E422300C4EFFF41C2E9FFC7
:1024B00042C2EAFFEF6A435143070009E1E1040128
:1024C0000151120044C201F445C202F40401036B3D
:1024D00044C2E9FF45C2EAFFEFCF00F4EF5038E015
:1024E0002E0E0401005D28E1020144C2E9FF45C24D
:1024F000EAFF442B000E4523EF6A01C4E6FF02C445
:10250000E6FF7DEC2FF0E552E552F350E66E46C251
:1025100010F047C211F004010351032B0F011024E6
:10252000E96E000E1120EA6EE552E750EF6E44C2EC
:1025300001F445C202F407D0300E005D03E3005100
:10254000390801E2000C0201442B000E4523C0D7DC
:1025500001C4E6FF02C4E6FF7DEC2FF0E552E55230
:10256000F350E66E46C210F047C211F00401035169
:102570000F011024E96E000E1120EA6EE552E750BB
:10258000EF6E030E0401035D01E0000C010C9EAA36
:10259000FED7AECF00F4310E0401005D05E3390E25
:1025A000005D02E200511200390C02010D0E1D6F98
:1025B000D2EC0EF002010A0E1D6FD2EC0EF0300EBE
:1025C0000201485DFF0FE96EEA6AD890E936EA3603
:1025D000050EE926030EEA22EECF3FF2EDCF40F2E0
:1025E0003BDF02014851380A01E1AAD00F0A01E19C
:1025F000A5D0010A01E1A0D0030A01E19BD0010AA4
:1026000051E0070A4AE0010A43E0030A01E0120030
:102610008F0EE66E040EE66E12C2E6FF13C2E6FFF0
:10262000F2EC2FF0E552E552E552E55202018F0E31
:102630001E6F040E1F6FD7EC0EF00201290E1D6FE6
:10264000D2EC0EF002013A0E1D6FD2EC0EF0020138
:10265000200E1D6FD2EC0EF00201140E436F02012A
:102660008F0E416F040E426F09DF00094DE08F0E9F
:10267000E66E040EE66E7DEC2FF0E552E552F3CFE8
:1026800012F2F4CF13F2F4CF08F2F3CF09F21200F2
:102690000401000EA76F020E09D004010E0EA76FF1
:1026A000020E04D004010A0EA76F020EA86F0201E9
:1026B000226BA7C420F2E8CF21F247EC0FF0020111
:1026C000290E1D6FD2EC0EF002013A0E1D6FD2ECF6
:1026D0000EF00201200E1D6FD2EC0EF00201140E5E
:1026E000436F02018F0E416F040E426FC7DE02017D
:1026F000A30E466F040E476F02018F0E446F040E47
:10270000456FE0DE000909E10201ED0E3F6F640E46
:10271000406FA2DE9EBA0DD0FDD7A7C4E9FFA8C4C2
:10272000EAFFA3C4EEFFA4C4EEFFA5C4EEFFA6C457
:10273000EEFF12001881120018911200B6EF13F08C
:1027400000EF12F00201940E3F6F630E406F84DEC3
:102750001EDF0401AB6F390EAB5D03E0ABC448F282
:1027600024DF380E0401AB5DEDE112000401006BC3
:10277000046B18EC2FF0F3CF02F4F4CF03F408EC61
:1027800037F006C087F407C088F408C089F409C090
:102790008AF411EC37F008EC37F006C08BF407C070
:1027A0008CF408C08DF409C08EF4870EE96E040E17
:1027B000EA6EEE500401065C106EEE500758116E82
:1027C000EE500858126EEE500958136E320E105C1F
:1027D000000E1158000E1258000E135810E308ECAA
:1027E00037F006C087F407C088F408C089F409C030
:1027F0008AF40201150E1D6FD2EC0EF089749EAAA8
:10280000C8D70401045172E111EC37F09EAAF9D740
:102810008974AECF01F404010051030A25E0010AD6
:1028200020E0030A19E0010502E1010E1BD0040EAD
:10283000015D0CE18984DBEC2EF00201060E1D6FB8
:10284000D2EC0EF00401010E046FDBD70201150E6D
:102850001D6FD2EC0EF0D5D7060E066F056B020E7B
:1028600001D0030E006FCDD70551052BEA6A070F83
:10287000E96E040EEA2201C4EFFF0551106E116AE1
:102880001134BFE210508008000E1154BAE202C4A5
:1028900041F303C442F31EEC2FF00401060E066F51
:1028A000016B0151106E116AD890115004E6800E30
:1028B000105C000E11580DE20151EA6A070FE96E33
:1028C000040EEA22EFCF43F334EC2FF00401012B86
:1028D000E8D74EEC2FF0F3CF02F4F4CF03F406C4A4
:1028E0001DF2D2EC0EF00401006B8BD7010C4B0EE5
:1028F000E66E1EEC37F0E5521200140EE66E1EEC8A
:1029000037F0E5521200F29E050EE66E3AEC37F013
:06291000E552F28E1200F8
:0A2916000401036B020E035D26E2CC
:10292000500E01019E6F9F6B9DEC00F0E66E04015E
:1029300003510A0DF3CFE9FFF4CFEAFFAB0EE9260E
:10294000020EEA22E552E750EF6E03510A0DF3CF73
:10295000E9FFF4CFEAFFAB0EE926020EEA22030EEE
:10296000E926000EEA22EF6A032BD7D712000401F2
:10297000B36B020EB35D06E2B3C4BFF204D8040128
:10298000B32BF7D712000201BF510A0DF3CF61F448
:10299000F4CF62F4AB0E04016127020E6223010E34
:1029A000546F0401545101E13BD2546B61C4E9FFFF
:1029B00062C4EAFFEF500101A46FE4EC01F00009EA
:1029C0000AE161C4E9FF62C4EAFF030EE926000ED2
:1029D000EA22EF6A120061C4E9FF62C4EAFF030E53
:1029E000EB50090A01E1F0D1080A01E1C5D10A0A58
:1029F00001E11CD1090A01E1D7D0020AD2E161C488
:102A0000E9FF62C4EAFFEF500101B36F90EC04F0FC
:102A10000009C7E00401010E546F526B536B0401AF
:102A2000500E525D000E535917E252C4B1F153C417
:102A3000B2F1522B000E5323000E0101B127040EF8
:102A4000B22361C4E9FF62C4EAFFEF500101B06F35
:102A500035EC04F00009E3E1000E04015225E96EB3
:102A6000040E5321EA6EEF6A61C4E9FF62C4EAFF13
:102A7000EF500101AA6FCAEC03F061C4E9FF62C420
:102A8000EAFF030EE926000EEA22020EEF6E0401B1
:102A9000050E5F6F61C4E9FF62C4EAFF090EE92613
:102AA000000EEA22E9CFC8F2EACFC9F202015F0EB6
:102AB000C66F040EC76F0201550EC46F040EC56FBA
:102AC0000201000EC26F040EC36FB2DA0401516F2F
:102AD000E85001E066D75F51010813E25FC435F2A8
:102AE0000201550E336F040E346FB3EC10F061C465
:102AF000E9FF62C4EAFF090EE926000EEA22030E8E
:102B0000EF6E55C43DF356C43EF368EC2EF0F3CFA0
:102B100010F0F4CF11F061C4E9FF62C4EAFF010EC6
:102B2000F3CFEBFF020E11C0EBFF61C4E9FF62C4FB
:102B3000EAFFEE52FF0EEE1812E1FF0EED180FE164
:102B400061C4E9FF62C4EAFF080EE926000EEA222A
:102B5000EF6A61C4E9FF62C4EAFF030E16D061C4E4
:102B6000E9FF62C4EAFFEE52EE50ED1013E161C4DA
:102B7000E9FF62C4EAFF080EE926000EEA22030E0E
:102B8000EF6E61C4E9FF62C4EAFFE926000EEA22A3
:102B9000020E44D161C4E9FF62C4EAFF030EE926D4
:102BA000000EEA220B0E3AD161C4E9FF62C4EAFFCB
:102BB000EF500101A76F32EC03F0000901E1F1D6FB
:102BC00061C4E9FF62C4EAFF080EEB50E96EEA6AED
:102BD000D890E936EA36720EE926030EEA22EECFE5
:102BE00063F4EDCF64F4040163C4F6FF64C4F7FF3B
:102BF000632B000E64230800F5CF60F4F5500CE061
:102C000060C4A9F161C4E9FF62C4EAFFEF500101A9
:102C1000A86F59EC03F0E7D761C4E9FF62C4EAFF8B
:102C2000EF500101A66F6EEC02F0C4D061C4E9FF61
:102C300062C4EAFFEF500101A76F32EC03F0000914
:102C400001E1AFD60401010E546F606B6051106E4C
:102C5000116A1F0E105C000E115815E26051F76AE0
:102C60000C0FF66E6C0EF7220800F5CFA9F161C4C7
:102C7000E9FF62C4EAFFEF500101A86F59EC03F0CD
:102C80000401602BE3D761C4E9FF62C4EAFF090EC7
:102C9000EB50140DF3CFF6FFF4CFF7FF800EF626BE
:102CA0006B0EF722F6CF63F4F7CF64F4040163C42C
:102CB000F6FF64C4F7FF632B000E64230800F5CF12
:102CC00060F4F5500CE060C4A9F161C4E9FF62C48E
:102CD000EAFFEF500101A86F59EC03F0E7D7606BF2
:102CE0006051106E116A040E105C000E115815E24E
:102CF0006051F76A2C0FF66E6C0EF7220800F5CFC4
:102D0000A9F161C4E9FF62C4EAFFEF500101A86FB5
:102D100059EC03F00401602BE3D761C4E9FF62C4FE
:102D2000EAFF090EEB5003080BE161C4E9FF62C43E
:102D3000EAFF070EE926000EEA22010EEF6E09D027
:102D400061C4E9FF62C4EAFF070EE926000EEA2229
:102D5000EF6A61C4E9FF62C4EAFF040EE926000ECF
:102D6000EA22030EEF6E61C4E9FF62C4EAFFE926BE
:102D7000000EEA22010E52D061C4E9FF62C4EAFFEC
:102D8000EF500101B36F90EC04F0000909E061C459
:102D9000E9FF62C4EAFFEF500101AA6FCAEC03F039
:102DA00061C4C0F262C4C1F23CD8000901E1F9D5A6
:102DB000DBEC2EF061C4E9FF62C4EAFF030EE926F2
:102DC000000EEA22090E2AD061C4E9FF62C4EAFFBC
:102DD000EF500101A46FE4EC01F0000901E1E1D53D
:102DE00061C4E9FF62C4EAFFEF500101A76F32EC52
:102DF00003F0000901E1D5D561C4E9FF62C4EAFF2F
:102E0000EF500101A56FF4EC01F061C4E9FF62C469
:102E1000EAFF030EE926000EEA220A0EEF6EC1D584
:102E20001200C0C2E9FFC1C2EAFFEE52EECF3FF38B
:102E3000EDCF40F3E2EC2EF0C0C2E9FFC1C2EAFFE1
:102E4000EF500101A76F32EC03F0000901E1DFD080
:102E50000401B16BC0C2E9FFC1C2EAFF040EEB502E
:102E6000080815E0F3EC2EF00401B26F0301381DE1
:102E70000EE1391D0CE111EC2FF0C0C2E9FFC1C217
:102E8000EAFFEF500101A66F6EEC02F0010CC0C228
:102E9000E9FFC1C2EAFF070EEB50000901E1ABD028
:102EA000C0C2E9FFC1C2EAFF040EEB50080A5AE0B3
:102EB0000E0A37E0030A14E0060A01E098D0250E56
:102EC0000401B25D0AE1C0C2E9FFC1C2EAFF040E1B
:102ED000E926000EEA22050E88D0010EB16F88D0D7
:102EE000250E0401B25D03E1010EB16F75D0300E05
:102EF000B25D100DF350E66EC0C2E9FFC1C2EAFF39
:102F0000080EE926000EEA22E552E750EF6EC0C235
:102F1000E9FFC1C2EAFF040EE926000EEA22060E0E
:102F200064D0300E0401B25D106EC0C2E9FFC1C2B0
:102F3000EAFF080EE926000EEA221050EF12C0C286
:102F4000E9FFC1C2EAFF040EE926000EEA22080EDC
:102F5000EF6EC0C2E9FFC1C2EAFF050EEB6A060EC2
:102F6000EB6A46D00201B20E396F040E3A6FC0C24E
:102F7000E9FFC1C2EAFF050EE926000EEA22EECF04
:102F800037F2EDCF38F2C0C2E9FFC1C2EAFF080E46
:102F9000EB500201366F18EC11F0F3CF10F0F4CFC4
:102FA00011F0C0C2E9FFC1C2EAFF050EF3CFEBFF8B
:102FB000060E11C0EBFF0401010EB16FC0C2E9FFA4
:102FC000C1C2EAFF050EE926000EEA22FF0EEE1846
:102FD0000FE1FF0EED180CE1C0C2E9FFC1C2EAFF2C
:102FE000040EE926000EEA22030EEF6E01D0FFD791
:102FF000B15101E121D7B2C4A9F1C0C2E9FFC1C2F8
:10300000EAFFEF500101A86F59EC03F015D711EC5E
:103010002FF0F3CF10F0F4CF11F0C0C2E9FFC1C21E
:10302000EAFF010EF3CFEBFF020E11C0EBFF000C25
:103030000401666B686B696B656B030EE66EE66A8E
:10304000310E106E6C0E116E126A10C0E6FFE66E45
:1030500012C0E6FFC2C2E6FFC3C2E6FF9CEC32F03C
:10306000136E070EE15E1350000908E1040E020121
:10307000C227000EC3230401676B01D0020CC2C239
:10308000E9FFC3C2EAFFEF50200805E10201C22BAD
:10309000000EC323F4D7C2C2E9FFC3C2EAFFEFCFD9
:1030A0006AF4200E04016A5D01E195D06A5101E1E4
:1030B00092D00D0E6A5D01E18ED00A0E6A5D01E1CB
:1030C0008AD0C6C2E9FFC7C2EAFFEF50655D01E3DF
:1030D00082D06651020A30E0030A1DE0010A76E15F
:1030E0006551020D0201C451F324E96EC551F4206B
:1030F000EA6EC2C2EEFFC3C2EDFFC2C2E9FFC3C2A5
:10310000EAFFEFCF6AF42F0E04016A5D41E05C0E26
:103110006A5D5CE13DD06551652B020D0201C45131
:10312000F324E96EC551F420EA6EC2C2EEFFC3C2B9
:10313000EDFF0401020E666FC2C2E9FFC3C2EAFFDF
:10314000EFCF6AF43F0E6A5D1EE0260E6A5D1BE05B
:103150002B0E6A5D07E1200EC2C2E9FFC3C2EAFF7F
:10316000EF6E34D02E0E6A5D0BE1650509E10201B8
:10317000C22B000EC323C2C268F4C3C269F426D0B6
:103180003D0E6A5D08E1C2C2E9FFC3C2EAFFEF6A11
:10319000010E666F1BD02F0E6A5D03E05C0E6A5D48
:1031A00015E1010E0201116AC225106EC3511122F0
:1031B00004016505020D0201C451F324E96EC551F5
:1031C000F420EA6E10C0EEFF11C0EDFF0201C22B29
:1031D000000EC32360D7C2C2E9FFC3C2EAFFEF6A91
:1031E000070EC8C2E9FFC9C2EAFFEF6E6851691154
:1031F00042E068C4E6FF69C4E6FF70EC33F0E552D4
:10320000E552F3CF68F4F4CF69F40401640E6B6FF8
:103210006B0E6C6F6A6B6A51106E116A070E105C50
:10322000000E115828E2030EE66EE66A6BC410F039
:103230006CC411F0126A6BC4E6FF6CC4E6FF12C0E6
:10324000E6FF68C4E6FF69C4E6FF9CEC32F0136E4B
:10325000070EE15E1350000907E1C8C2E9FFC9C2C9
:10326000EAFF6AC4EFFF07D0040E04016B27000ECB
:103270006C236A2BD0D70401655130E1090EE66E4C
:10328000E66A350E106E6C0E116E126A10C0E6FF03
:10329000E66E12C0E6FFC4C2E9FFC5C2EAFFEECF88
:1032A000E6FFEFCFE6FFE6EC32F0136E070EE15ECD
:1032B0001350C4C2E9FFC5C2EAFFEE50EFCFEAFFE8
:1032C000E96E090EE926000EEA22EF6A010EC8C275
:1032D000E9FFC9C2EAFFEF6E0401652BC6C2E9FF30
:0C32E000C7C2EAFF65C4EFFF675112008F
:0432EC000401006B6E
:1032F0000051106E116A010E105C000E115825E28B
:103300000051040DF3CF10F0F4CF11F0400E102651
:10331000000E11220051E96EEA6AD890E936EA36C9
:10332000DB0EE926010EEA2210C0EFFF0051E96E24
:10333000EA6AD890E936EA36DB0EE926010EEA227F
:10334000EE52010EEF6E002BD3D70101DF6B62DB73
:103350000A0EE66E1EEC37F0E55201011F0EF66F05
:1033600074DB0101F56F01011F0EF46F63DB0A0EC0
:10337000E66E1EEC37F0E5520101070EF66F65DBD5
:10338000800B01E1AED00101210EF56F0101F46B5C
:1033900051DB0A0EE66E1EEC37F0E5520101480ED5
:1033A000F56F01010E0EF46F45DB0101F56B0101B4
:1033B0000A0EF46F3FDB0101F56B01010B0EF46F98
:1033C00039DB0101040EF56F01010C0EF46F32DBE5
:1033D0000101020EF56F01010D0EF46F2BDB0101EF
:1033E000DF51E96EEA6AD890E936EA36DB0EE92663
:1033F000010EEA22EFCFF5F10101040EF46F1ADBA2
:103400000101440EF56F0101010EF46F13DB0101A0
:103410005F0EF56F0101020EF46F0CDB01015E0E11
:10342000F56F0101030EF46F05DB0101F569010180
:10343000070EF46FFFDA0101F56B01010F0EF46F57
:10344000F9DA0101610EF56F0101F46BF3DA04C2E0
:10345000F5F10101010EF46FEDDA05C2F5F101019C
:10346000020EF46FE7DA06C2F5F10101030EF46F04
:10347000E1DA07C2F5F10101040EF46FDBDA08C2EC
:10348000F5F10101050EF46FD5DA09C2F5F101017C
:10349000060EF46FCFDA0401006B080E005D0BE23C
:1034A0000101F569080E040100250101F46FC2DA7B
:1034B0000401002BF2D70101440EF56F0101070E44
:1034C000F46FB8DA0101440EDD6F0101220EF56FD1
:1034D0000101F46BAFDA0101F56B01010D0EF46F20
:1034E000A9DA12000101F66BB0DA040B01E0000C5E
:1034F000010C0101010EF56F01010A0EF46F9ADA59
:103500000101F56B01010B0EF46F94DA0101120E4B
:10351000F56F0101F46B8EDAE0C1F5F10101100ED7
:10352000F46F1AEF1DF0010E0101E315106E116A20
:10353000E35110240401A26F0101E45111200401A0
:10354000A36F0101400EF56F0101070EF46F72DAEF
:10355000A2C4F5F101010A0EF46F6CDAA3C4F5F10F
:1035600001010B0EF46F66DA0101120EF56F010115
:10357000F46B60DA0101E3C110F0E4C111F0E3077C
:10358000000EE45BD8801054000E11540DE2E1C12E
:10359000E9FFE2C1EAFFE12B000EE223EFCFF5F1F4
:1035A0000101100EF46FE5D7E369E46BE351E41118
:1035B0000BE00101070EF66F48DA400B05E101014F
:1035C000E307000EE45BF2D712000101010EF56F74
:1035D00001010A0EF46F2EDA0101F56B01010B0EE9
:1035E000F46F28DA01010A0EF56F0101F46B22DA9B
:1035F0000101100EF66F25EF1DF0E7C131F4E8C1AF
:1036000032F40101400EF56F0101070EF46F12DA7A
:1036100031C4F5F101010A0EF46F0CDA32C4F5F190
:1036200001010B0EF46F06DA01010A0EF56F0101BC
:10363000F46B00DA0101E7C110F0E8C111F0E7070F
:10364000000EE85BD8801054000E115411E2010105
:10365000100EF66FFAD9E66E0101E5C1E9FFE6C189
:10366000EAFFE52B000EE623E552E750EF6EE2D7C6
:1036700031C4F3FF32C4F4FF12000101E951E96ED5
:10368000EA6AD890E936EA36DB0EE926010EEA222C
:10369000EE52EF6A12000101EA51E96EEA6AD8902F
:1036A000E936EA36DB0EE926010EEA22EE52010E79
:1036B000EF6EEAC1DFF112000101DD050401676F61
:1036C000E850106E116AD890115004E6440E105C58
:1036D000000E115802E25E0E676F0101200EF56FB9
:1036E0000101F46BA7D967C4F5F10101030EF46F72
:1036F0001AEF1DF00101600EF56F0101F46B9AD90C
:103700000101070EF66FA1D904018B6F0101200E94
:10371000F56F0101F46B8ED90101DE5104018B5D5F
:1037200007E25F0E0101D880DE5504018B2504D02D
:103730000101DE5104018B5D8C6FE850106E116A3F
:103740001B0ED8801056000E115610C08CF410C0FD
:103750008EF48D6B8DC4F3FF10C0F4FF12000101D5
:10376000E00EF56F0101F46B65D90101030EF66FF0
:103770006CD90401006F0101200EF56F0101F46B9B
:1037800059D904010051040B01E0000C010CEDC1FA
:10379000E9FFEEC1EAFFEF680101070EF66F55D9A8
:1037A000100B30E00101210EF56F0101F46B42D9DD
:1037B0000101F9696ED90101F56B01010A0EF46F7F
:1037C00039D90101F56B01010B0EF46F33D90101F9
:1037D000020EF56F01010D0EF46F2CD90101200EC0
:1037E000F56F0101F46B26D967DF0101F56901016D
:1037F000070EF46F1FD90101F56B01010D0EF46F77
:1038000019D9000C0101600EF56F0101F46B12D99A
:103810000101070EF66F19D90401126F0101200E84
:10382000F56F0101F46B06D90101DD510401125D50
:1038300058E0DDC114F4136B13C4F7F1DDC1F8F1E6
:1038400010D9120E0101E76FE86B0101000EE56F60
:10385000040EE66FD2DE04010051010B3DE0400E84
:10386000025D000E035938E3EE0ED8800255050EB6
:10387000035532E310C45FF311C460F385EC33F0F9
:10388000F3CF10F4F4CF11F4060EE66EE66A0A0EDA
:10389000E66E040EE66EEBC1E9FFECC1EAFFEBC198
:1038A00010F0ECC111F0EBC1E6FFECC1E6FFBBECA0
:1038B00032F0126E060EE15E1250080E0401115D28
:1038C0000BE1105103E0060E105D06E1EDC1E9FFCA
:1038D000EEC1EAFF10C4EFFFDDC1DEF101C4DDF18E
:1038E000010C000C01010A0EF56F0101070EF46FC7
:1038F000A1D80101DF51E96EEA6AD890E936EA36CB
:10390000DB0EE926010EEA22EFCFA0F404019F6B43
:103910009FC4F7F1A0C4F8F1A4D8060E0101E36F2B
:10392000E46BEFC1E1F1F0C1E2F1FDDD04C2E0F1D1
:10393000E0DD05C2E0F1DDDD06C2E0F1DADD07C25F
:10394000E0F1D7DD08C2E0F1D4DD09C2E0F1D1DD5C
:103950000101F15103E10401A16B03D00401060E42
:10396000A16F0101080EE06FC4DDA1C4E0F1C1DD6B
:103970000E0E0101F227000EF3233C0EF25D000E45
:10398000F35903E2400EF26FF36BF2C19FF4F3C1FF
:10399000A0F4F2C1F5F10101050EF46F4BD8A0C4FB
:1039A000F5F10101060EF46F1AEF1DF00101DF5170
:1039B000E96EEA6AD890E936EA36DB0EE926010EAE
:1039C000EA22EFCFF5F10101040EF46F33D80101C3
:1039D000240EF56F0101F46B2DD804018B6B8B5114
:1039E000106E116A010E105C000E115812E28B511C
:1039F000E96EEA6AD890E936EA36DB0EE926010E6E
:103A0000EA22EE52EF5003E08BC4DFF112008B2B61
:103A1000E6D712009568816AE00E936EF19E84826B
:103A200084808484966A050EE66E3AEC37F0E5529F
:103A300084941200F4C181FFE00E936EF5C183FF00
:103A4000956A84928482956812009568F6C181FF18
:103A5000E00E936E849083CFA4F484800401A4517B
:103A60001200F7C1A2F4F8C1A3F40101400EF56FF2
:103A70000101070EF46FDEDFA2C4F5F10101080EAB
:103A8000F46FD8DFA3C4F5F10101090EF46F1AEF4A
:103A90001DF0F9C116F40401156B15C410F016C41D
:103AA00011F01507000E165BD8801054000E11544B
:103AB000F4E31200DEC168F40401120E676F010125
:103AC000FA51040167270101FB510401682367C40F
:103AD000F7F168C4F8F131EF1DF0FCC1DFF101012D
:103AE000DF51E96EEA6AD890E936EA36DB0EE9265C
:103AF000010EEA22EFCF8CF404010E0E8B6F010150
:103B0000FD5104018B270101FE5104018C238BC45C
:103B1000F7F18CC4F8F131EF1DF00101090EF66FD9
:103B200094DF0401016F0101080EF66F8EDFF36E62
:063B300001C4F4FF1200C5
:0A3B3600070E03017A5D01E11200A1
:103B4000FF0E7B5D04E07BC37CF22CEC22F00301D2
:103B50007B697A6B7D6B120003017A51060A01E1E1
:103B600015D1030A01E1B5D0010A01E19AD0070A93
:103B70006FE0010A4FE0030A31E0010A01E01200A0
:103B8000040100690169026903690469056906693C
:103B90000769086909690201D26BD36BD46BD56BD5
:103BA000430E02017A6F7B6B0201000E786F040EE8
:103BB000796F440E0201766F776BC3EC21F003013D
:103BC0007B6F08EC37F006C0DEF207C0DFF208C0FA
:103BD000E0F209C0E1F20301010E7A6F08EC37F060
:103BE0000201DE51065C106EDF510758116EE05184
:103BF0000858126EE1510958136E140E105C000E35
:103C00001158000E1258000E135801E2EDD00301B6
:103C1000020E6DD00201D251D311D411D51165E13C
:103C20007BC375F272EC1AF0000901E1DDD00201EC
:103C3000010EE26F85DA08EC37F006C0DEF207C04D
:103C4000DFF208C0E0F209C0E1F20301030E4FD039
:103C500008EC37F00201DE51065C106EDF510758A8
:103C6000116EE0510858126EE1510958136EC80EDA
:103C7000105C000E1158000E1258000E135803E38A
:103C80000301020E7A6F7BC37EF23EEC23F0000943
:103C900001E1AAD0B1D8020801E0A6D00301040EC8
:103CA0007A6F7BC375F272EC1AF0000901E19CD0C7
:103CB0000201030EE26F44DA08EC37F006C0DEF2D0
:103CC00007C0DFF208C0E0F209C0E1F20301050E0F
:103CD0000ED07BC37EF23EEC23F000093BE08CD893
:103CE00004010A6F060E0A5D04E10301040E7A6FF7
:103CF0001200050E0A5D49E17BC37CF22CEC22F038
:103D000003017B6908EC37F006C0DEF207C0DFF282
:103D100008C0E0F209C0E1F20301060E7A6FD2C2D8
:103D200000F2D3C201F2D4C202F2D5C203F2DAC267
:103D30000AF2DBC20BF2DCC20CF2DDC20DF2D6C21B
:103D40000EF2D7C20FF2D8C210F2D9C211F27C81A2
:103D50007D2B120008EC37F00201DE51065C106E7C
:103D6000DF510758116EE0510858126EE1510958A1
:103D7000136EC80E105C000E1158000E1258000E83
:103D8000135832E30301020E7A6F120008EC37F089
:103D90000201DE51065C106EDF510758116EE051D2
:103DA0000858126EE1510958136E640E105C000E33
:103DB0001158000E1258000E135816E3CE07000ECD
:103DC000CF5BD05BD15BCE51CF11D011D11102E1CD
:103DD00003017A6B08EC37F006C0DEF207C0DFF2B1
:103DE00008C0E0F209C0E1F212000301080E7A6F88
:103DF0007BC37CF22CEF22F004010D6B02013C0E20
:103E0000CE6FCF6BD06BD16B02010B0E7F6F040EA8
:103E1000806F56EC23F0020E04010B5D01E06BD1C4
:103E20000C6B0F0E0C5D0AE202010B0E7F6F040E8D
:103E3000806F56EC23F004010C2BF3D70201D20E55
:103E40007F6F020E806F56EC23F00201D30E7F6F5E
:103E5000020E806F56EC23F00201D40E7F6F020E2B
:103E6000806F56EC23F00201D50E7F6F020E806F3B
:103E700056EC23F004010C6B080E0C5D0AE2020103
:103E80000B0E7F6F040E806F56EC23F004010C2B99
:103E9000F3D70C6B060E0C5D14E202010B0E7F6F64
:103EA000040E806F56EC23F004010C51EA6A040FF3
:103EB000E96E020EEA22EF500B5D01E03ED10C2BC1
:103EC000E9D70C6B0C51106E116AD890115004E6B2
:103ED000CE0E105C000E11580AE202010B0E7F6F2D
:103EE000040E806F56EC23F004010C2BEBD70E6B05
:103EF00002010B0E7F6F040E806F56EC23F004015D
:103F00000B51330A01E1A8D0CC0A01E1A2D0C90AC1
:103F100001E176D0350A3BE0020A13E0340A01E001
:103F2000D5D002010B0E7F6F040E806F56EC23F08C
:103F300004010B0501E001D102010D0E7F6F040E9B
:103F400084D002010B0E7F6F040E806F56EC23F0BD
:103F5000040E04010B5D01E0F0D00201DA0E7F6F68
:103F6000020E806F56EC23F00201DB0E7F6F020E13
:103F7000806F56EC23F00201DC0E7F6F020E806F23
:103F800056EC23F00201DD0E7F6F020E5ED00201BF
:103F90000B0E7F6F040E806F56EC23F0040E0401AD
:103FA0000B5D01E2CAD00201D60E7F6F020E806F58
:103FB00056EC23F00201D70E7F6F020E806F56EC95
:103FC00023F00201D80E7F6F020E806F56EC23F0B3
:103FD0000201D90E7F6F020E806F56EC23F0040EA3
:103FE00004010B5F04010B510B07000901E17FD0B5
:103FF00002010C0E7F6F040E806F56EC23F0F2D797
:1040000002010B0E7F6F040E806F56EC23F0040E3E
:1040100004010B5D01E091D00201120E7F6F040ECE
:10402000806F56EC23F00201110E7F6F040E806F3B
:1040300056EC23F00201100E7F6F040E806F56ECD9
:1040400023F002010F0E7F6F040E806F56EC23F0F9
:104050004ED0010E0E6F4BD002010B0E7F6F040E7F
:10406000806F56EC23F0040E04010B5D66E1020143
:10407000D10E7F6F020E806F56EC23F00201D00E3E
:104080007F6F020E806F56EC23F00201CF0E7F6F20
:10409000020E806F56EC23F00201CE0E7F6F020EEF
:1040A000806F56EC23F0D880080E0201CE55070E23
:1040B000CF55000ED055000ED15519E2080ECE5F37
:1040C000070ECF5B000ED05BD15B11D002010B0E4F
:1040D0007F6F040E806F56EC23F004010B510B0729
:1040E000000905E002010C0E7F6F040EF3D70401F6
:1040F0000E5101E1FDD6020E0D5D09E10FC4CAF2B9
:1041000010C4CBF211C4CCF212C4CDF211D0CA0E3D
:10411000E96E020EEA6EEE500F1908E1EE5010192A
:1041200005E1EE50111902E1EE50121901E00D6B9C
:10413000BBEC23F004010D511200BBEC23F0000C8A
:104140000201010E7D6F3EEC22F00201010E7D6F37
:104150003EEC22F00201060E7D6F3EEC22F00201E1
:104160007D6B3EEC22F00201120E7D6F3EEC22F0E0
:104170000201230E7D6F3EEC22F00201340E7D6FB2
:104180003EEC22F00201560E7D6F3EEC22F0020161
:104190007D6B3EEC22F002017D6B3EEC22F00201D1
:1041A000800E7D6F3EEC22F002017D6B3EEC22F032
:1041B00002017D6B3EEC22F002017D6B3EEC22F0B1
:1041C00002017D6B3EEC22F002017D6B3EEC22F0A1
:1041D0000401196B0C0E195D07E202017D6B3EECC8
:1041E00022F00401192BF6D704C27DF23EEC22F036
:1041F00005C27DF23EEC22F006C27DF23EEC22F0DA
:1042000007C27DF23EEC22F008C27DF23EEC22F0C5
:1042100009C27DF23EEC22F00401196B1951106EB7
:10422000116AD890115004E6CA0E105C000E1158A5
:1042300007E202017D6B3EEC22F00401192BEED760
:104240000201630E7D6F3EEC22F00201820E7D6F53
:104250003EEC22F00201530E7D6F3EEC22F0020193
:10426000630E7D6F3EEC22F00201350E7D6F3EEC59
:1042700022F00201010E7D6F3EEC22F0E2C27DF2DF
:104280003EEC22F00201E2051FE0D251D311D4111D
:10429000D5111AE00201360E7D6F3EEC22F00201CC
:1042A000040E7D6F3EEC22F0CDC27DF23EEC22F09A
:1042B000CCC27DF23EEC22F0CBC27DF23EEC22F08D
:1042C000CAC27DF23EEC22F00201370E7D6F3EEC59
:1042D00022F00201020E7D6F3EEC22F00201010E7F
:1042E0007D6F3EEC22F00201030E7D6F3EEC22F06A
:1042F000030E0201E25D1AE10201320E7D6F3EEC17
:1043000022F00201040E7D6F3EEC22F0D2C27DF25B
:104310003EEC22F0D3C27DF23EEC22F0D4C27DF21C
:104320003EEC22F0D5C27DF23EEC22F002017D6926
:084330003EEC22F0B3EF22F095
:084338000401006B020E005DA0
:1043400021E20051160DF3CFE9FFF4CFEAFF490E49
:10435000E926020EEA220C0EE926000EEA22EE6A97
:10436000ED6A0051160DF3CFE9FFF4CFEAFF490ED5
:10437000E926020EEA22150EE926000EEA22EF9047
:10438000002BDCD712000401490E0C6F020E0D6FDA
:104390000B6B020E0B5D5FE20CC4E9FF0DC4EAFF7C
:1043A0000C0EE926000EEA22EECF10F0EFCF11F04E
:1043B000126A136A105011101210131046E10CC447
:1043C000E9FF0DC4EAFF0C0E76C2EBFF0D0E77C2BB
:1043D000EBFF02017851791119E00A0EE66EE66AE8
:1043E00078C2E6FF79C2E6FF0CC4E9FF0DC4EAFF1C
:1043F0000CC410F00DC411F00CC4E6FF0DC4E6FFB0
:10440000BBEC32F0126E060EE15E12500CC4E9FFF6
:104410000DC4EAFF0A0E7AC2EBFF0B0E7BC2EBFF64
:104420000CC4E9FF0DC4EAFF0E0EEB6A0F0EEB6A37
:104430000CC4E9FF0DC4EAFF100EEB6A110EEB6A23
:104440000BC475F204010B511200160E0C27000E5E
:104450000D230B2B9ED7FF0C02017C51160DF3CFC1
:10446000E9FFF4CFEAFF490EE926020EEA220C0E1C
:10447000E926000EEA22EE6AED6A12000201755189
:10448000160DF3CF15F4F4CF16F4490E04011527D9
:10449000020E162315C4E9FF16C4EAFF0E0EE92624
:1044A000000EEA22EE50ED101DE115C4E9FF16C41E
:1044B000EAFF120EDFC1EBFF1C0E0101FD6FFE6B68
:1044C00015C4E9FF16C4EAFF120EEB500101FC6FA0
:1044D0006DEC1DF015C4E9FF16C4EAFF130EEB6A7C
:1044E000140EEB6A7DC2E0F179EC1AF015C4E9FF15
:1044F00016C4EAFF130EE926000EEA22EECF10F0F2
:10450000EDCF11F0EE2AEF2215C4E9FF16C4EAFF41
:104510000E0EE926000EEA22EECF12F0EFCF13F0D6
:104520001250105C135011580AE315C4E9FF16C469
:10453000EAFF0E0EE926000EEA22EE2AEF2215C44B
:10454000E9FF16C4EAFF0E0EE926000EEA22EECFBE
:1045500017F4EDCF18F40401D60E175D030E1859A9
:1045600001E301D8010C02017551160DF3CF13F4CC
:10457000F4CF14F4490E04011327020E142313C4BC
:10458000E9FF14C4EAFF0C0EE926000EEA22EECF82
:104590005FF3EDCF60F385EC33F0F3CF0BF4F4CFA2
:1045A0000CF413C4E9FF14C4EAFF0A0EE926000E56
:1045B000EA22EECF5FF3EDCF60F385EC33F0F3CF7B
:1045C0000DF4F4CF0EF413C4E9FF14C4EAFF0E0E89
:1045D000E926000EEA22EECF0FF4EFCF10F4080E1A
:1045E00004010F27000E1023116B126B140E010132
:1045F000FD6FFE6B13C4E9FF14C4EAFF120EEB500B
:104600000101FC6F6DEC1DF00FC451F310C452F3A7
:104610000301110E506F13C4E9FF14C4EAFF13C461
:104620004EF314C44FF31CEC2AF00FC45FF310C414
:1046300060F385EC33F0F3CF0FF4F4CF10F4080EF1
:104640000101E36FE46B01010B0EE16F040EE26FF9
:1046500093EC1AF0D6EC1CF013C4E9FF14C4EAFF83
:10466000120EE926000EEA22EF6813C4E9FF14C413
:10467000EAFF0E0EEB6A0F0EEB6A12007EC275F2B5
:1046800002017551160DF3CFE9FFF4CFEAFF490E91
:10469000E926020EEA22100EE926000EEA22D88050
:1046A000EE54000EED5401E3000C010C02017551B3
:1046B000160DF3CFE9FFF4CFEAFF490EE926020E0B
:1046C000EA22100EE926000EEA22EE50ED1001E17A
:1046D000000C7551160DF3CFE9FFF4CFEAFF490E38
:1046E000E926020EEA22150EE926000EEA22EF5014
:1046F000010B15E07551160DF3CFE9FFF4CFEAFF7A
:10470000490EE926020EEA22150EE926000EEA22DB
:10471000EF901C0E0101FA6FFB6B5AEC1DF0E5ECFB
:104720001AF07FC2E9FF80C2EAFFEF6E0201755105
:10473000160DF3CFE9FFF4CFEAFF490EE926020E8A
:10474000EA22100EE926000EEA22EE06EF5A755113
:10475000160DF3CFE9FFF4CFEAFF490EE926020E6A
:10476000EA22100EE926000EEA22EE50ED1002E1D8
:104770005CEC1BF0010C02017551160DF3CFE9FF43
:10478000F4CFEAFF490EE926020EEA22100EE926CE
:10479000000EEA22EE50ED1002E05CEC1BF002018C
:1047A0007551160DF3CFE9FFF4CFEAFF490EE92664
:1047B000020EEA22100EE926000EEA22EE6AED6AE7
:1047C0001200080E0101E76FE86B0101000EE56FB2
:1047D000040EE66FFDEC1AF000C45FF301C460F351
:1047E00085EC33F0F3CF00F4F4CF01F402C45FF3AF
:1047F00003C460F385EC33F0F3CF02F4F4CF03F499
:1048000004C45FF305C460F385EC33F0F3CF04F424
:10481000F4CF05F40401080E045F000E055B06C426
:104820005FF307C460F385EC33F0F3CF06F4F4CF05
:1048300007F481C287F282C288F20201000E856FFE
:10484000040E866F2AD80401086FFF0E085D03E18D
:104850005CEC1BF0010C0851160DF3CFE9FFF4CF0F
:10486000EAFF490EE926020EEA22100EE926000EA2
:10487000EA2204C4EEFF05C4EDFF0851160DF3CF84
:10488000E9FFF4CFEAFF490EE926020EEA22150EEF
:10489000E926000EEA22EF80010C04010A69490EA4
:1048A0000B6F020E0C6F096B020E095D01E390D0D5
:1048B0000BC4E9FF0CC4EAFF0C0EE926000EEA2245
:1048C000EECF10F0EFCF11F085C2E9FF86C2EAFF0C
:1048D000020EE926000EEA22EECF12F0EFCF13F01F
:1048E000125010186EE1135011186BE10BC4E9FF60
:1048F0000CC4EAFF0A0EE926000EEA22EECF10F001
:10490000EFCF11F085C2E9FF86C2EAFFEECF12F0C9
:10491000EFCF13F01250101852E1135011184FE15D
:104920000BC4E9FF0CC4EAFF100EE926000EEA22D0
:10493000EECF14F0EFCF15F0166A176A1450151069
:10494000161017103CE187C2E9FF88C2EAFF060E85
:10495000E926000EEA22EECF10F0EECF11F0EECFF6
:1049600012F0EFCF13F00BC4E9FF0CC4EAFF060E00
:10497000E926000EEA22EE500001101808E1EE5080
:10498000111805E1EE50121802E1EE50131814E070
:104990000BC4E9FF0CC4EAFF060EE926000EEA226A
:1049A000E868EE180CE1E868EE1809E1E868EE182E
:1049B00006E1E868EE1803E104010951120009C498
:1049C0000AF40401160E0B27000E0C23092B6CD7DA
:1049D000FF0E0A5D35E00A51160DF3CF0BF4F4CF4C
:1049E0000CF4490E0B27020E0C230A0EE66EE66A43
:1049F00087C2E6FF88C2E6FF0BC4E9FF0CC4EAFFEA
:104A00000BC410F00CC411F00BC4E6FF0CC4E6FF9D
:104A1000BBEC32F0126E060EE15E125085C2E9FF69
:104A200086C2EAFFEECF10F0EFCF11F00BC4E9FF22
:104A30000CC4EAFF0A0E10C0EBFF0B0E11C0EBFF17
:064A400004010A511200FE
:0A4A4600150E01019E6F9F6B9DECA1
:104A500000F00001816F856BB46B806B140E836F67
:104A6000846B120081C0A4F1E4EC01F0000907E1BD
:104A70000001B46B070E876F856B806BDCD081C043
:104A8000B3F190EC04F000093EE008EC37F006C00A
:104A9000C4F007C0C5F008C0C6F009C0C7F00101E6
:104AA000000EB16F040EB26F81C0B0F135EC04F0AE
:104AB00000090FE00001B451B42BEA6A930FE96ECC
:104AC000000EEA2200C4EFFF1F0EB45DE8E1B46BF4
:104AD000E6D781C0AAF1CAEC03F00A0E0401005D1A
:104AE00048E10001B451EA6A930FE96E000EEA2230
:104AF000EF6AB46BFCD9B5C0CBF0B6C0CCF0BED970
:104B00000001876F36D00001855133E008EC37F0A3
:104B100006C001F407C002F408C003F409C004F49D
:104B2000C40EE96E000EEA6EEE500401065C016FE1
:104B3000EE500758026FEE500858036FEE500958B8
:104B4000046F500E015D460E0259000E0359000E0F
:104B500004590FE308EC37F006C0C4F007C0C5F0F5
:104B600008C0C6F009C0C7F00001020E876F010E31
:104B7000856F00018551010A48E0050A0DE0040A2D
:104B800063E1886B08EC37F006C0C4F007C0C5F0DD
:104B900008C0C6F009C0C7F081C0A7F132EC03F02D
:104BA0000009FAE081C0A7F132EC03F000092DE022
:104BB00088C0E9FFEA6AE9BEEA68D890E936EA36D1
:104BC000950EE926020EEA22EECF05F4EDCF06F4AB
:104BD000040105C4F6FF06C4F7FF052B000E0623EB
:104BE0000800F5CF00F4F55007E000C4A9F181C03A
:104BF000A8F159EC03F0ECD781C0A6F16EEC02F0FD
:104C000000010B0E886F010E856F070E0001875D96
:104C10001BE087C0CAF019D800090FE00B0E000195
:104C2000885D03E0040E856F04D0020E875D01E10C
:104C3000856B070E876F866B010C0B0E0001885D7C
:104C400003E0040E856FA8D7010C0001CA51050AC4
:104C500051E0060A4DE0070A34E0060A30E0030A94
:104C600018E0010A51E180818093010E886F0A0EDD
:104C7000E66EE66AB7C0E6FFB8C0E6FF890EE66EEC
:104C8000000EE66E42EC33F0106E060EE15E105040
:104C9000010C80A112D0B7C03DF2B8C03EF20201B3
:104CA000890E3B6F000E3C6F5CEC11F0000904E0D4
:104CB00000018083020E29D00001060E26D087EF66
:104CC00026F0BFC0E6FFC0C0E6FF7DEC2FF0E55246
:104CD000E552F3CF84F0C1C0E6FFC2C0E6FF7DEC31
:104CE0002FF0E552E552F3CF83F000010A0E0DD00C
:104CF000BDEF26F00A0E886FFE0E825D07E082C0CF
:104D0000A5F1F4EC01F0010C050E886F010C000117
:104D10008651030A21E0020A14E0010A2DE1020E85
:104D2000865D02E1DBEC2EF0FE0E0001825D0FE0FD
:104D3000DBEC2EF082C0A5F1F4EC01F00001010ED5
:104D400009D082C0A4F1E4EC01F0000915E10001F2
:104D5000030E886F866F000C81C0A7F132EC03F060
:104D600000090AE081C0A4F1E4EC01F0000904E0CC
:104D700081C0A5F1F4EC01F0000C00018651020A9B
:104D800037E0030A22E0010A01E077D080B302D0C5
:104D9000060E71D0070E886F83C0A2F184C0A3F104
:104DA0008151260DF3CFE9FFF4CFEAFF000EE9268B
:104DB000010EEA22EE52E9CFA0F1EACFA1F101EC17
:104DC00001F00001826F010E11D082C0A4F1E4EC69
:104DD00001F0000952E0030137514FE118EC2FF0C8
:104DE000F3CFC8F0F4CFC9F00001020E866F000CBB
:104DF00082C0B3F190EC04F000092BE008EC37F02E
:104E000006C0C4F007C0C5F008C0C6F009C0C7F0AE
:104E1000C8C041F3C9C042F31EEC2FF001010B0ED4
:104E2000B16F040EB26F82C0B0F135EC04F000092E
:104E300005E00BC443F334EC2FF0F0D74EEC2FF029
:104E4000F3CFC8F0F4CFC9F082C0AAF1CAEC03F0E6
:104E5000000C82C0A4F1E4EC01F000090EE14EEC7C
:104E60002FF0DBEC2EF082C0A5F1F4EC01F0000194
:104E7000FE0E826F090E886F010C000C0401076B97
:104E8000060EE76E0719E8AE02D0E73402D0E7500D
:104E9000075D2CE2040EE66EE66A07C4E9FFEA6AE3
:104EA000E9BEEA68D890E936EA36890EE926020EAC
:104EB000EA22EECF10F0EFCF11F0126A10C0E6FF39
:104EC00011C0E6FF12C0E6FFCBC0E6FFCCC0E6FF94
:104ED0009CEC32F0136E070EE15E1350000903E103
:104EE0000401075112000401072BCAD7060C040164
:104EF0000A6B930E076F000E086F07C4E9FF08C422
:104F0000EAFFEF50200804E1072B000E0823F5D735
:104F100007C4B5F008C4B6F00001010EC36F07C4A2
:104F2000E9FF08C4EAFFEFCF09F4EF5039E00401CC
:104F30000A51010A1CE0010A2FE1200E095D03E07D
:104F40002C0E095D08E107C4E9FF08C4EAFFEF6A17
:104F5000010E0A6F21D00D0E095D03E00A0E095DF6
:104F60001BE107C4E9FF08C4EAFFEF6A15D0200E71
:104F7000095D12E00001C351C32BE96EEA6AD890C3
:104F8000E936EA36B50EE926000EEA2207C4EEFF3E
:104F900008C4EDFF04010A6B072B000E0823BFD7DE
:024FA0001200FD
:0E4FA2001C0E0101E76FE86B0101000EE56FC8
:104FB000040EE66FFDEC1AF05CEC1BF00301000E32
:104FC000706F040E716F29D90401010E001912E1EE
:104FD000015110E10451106E116A060E10180AE119
:104FE000115008E10551126E136A040E121801E106
:104FF000135001E0000C020E061908E1075106E10A
:105000006BC3E9FF6CC3EAFFEF6A13D0010E061908
:1050100009E1075107E1010E6BC3E9FF6CC3EAFF29
:10502000EF6E07D0020E6BC3E9FF6CC3EAFFEF6EB1
:10503000000C020100510401185D30E10201015130
:105040000401195D2BE10201025104011A5D26E100
:105050000201035104011B5D21E169C3E9FF6AC339
:10506000EAFF08C4EEFF09C4EEFF0AC4EEFF0BC45A
:10507000EEFF0CC4EEFF0DC4EEFF69C3E9FF6AC387
:10508000EAFF060EE926000EEA220EC4EEFF0FC468
:10509000EEFF10C4EEFF11C4EEFF010C000C010E78
:1050A0000401006F016B026B080E036F060E046FA4
:1050B000040E056F03016F050BE1010E0401066F7D
:1050C000076B12691369146915691669176914D099
:1050D000020E0401066F076B6DC3E9FF6EC3EAFFA2
:1050E000EECF12F4EECF13F4EECF14F4EECF15F4AE
:1050F000EECF16F4EFCF17F404C208F405C209F49A
:1051000006C20AF407C20BF408C20CF409C20DF47B
:1051100000C20EF401C20FF402C210F403C211F473
:105120006DC3E9FF6EC3EAFF060EE926000EEA2210
:10513000EF500E1902010A1536E16DC3E9FF6EC387
:10514000EAFF060EE926000EEA22010EE926000E0D
:10515000EA22EF5004010F1902010B1524E16DC37F
:10516000E9FF6EC3EAFF060EE926000EEA22020EF0
:10517000E926000EEA22EF500401101902010C1575
:1051800012E16DC3E9FF6EC3EAFF060EE926000EC9
:10519000EA22030EE926000EEA22EF50040111195B
:1051A00002010D1509E00EC218F40FC219F410C265
:1051B0001AF411C21BF410D06DC3E9FF6EC3EAFFED
:1051C000060EE926000EEA22EECF18F4EECF19F40F
:1051D000EECF1AF4EFCF1BF40301000E706F040E34
:1051E000716F1BD81C0E0101F26FF36B0101060EEB
:1051F000F16F0101120EEF6F040EF06F72EC1CF0F4
:105200001C0E0101E36FE46B0101000EE16F040E5F
:10521000E26F93EC1AF0D6EF1CF070C3E9FF71C394
:10522000EAFFEECF5FF3EDCF60F385EC33F0F3CF21
:1052300010F0F4CF11F070C3E9FF71C3EAFFF3CFB0
:10524000EEFF11C0EDFF70C3E9FF71C3EAFF020E6C
:10525000E926000EEA22EECF5FF3EDCF60F385EC96
:1052600033F0F3CF10F0F4CF11F070C3E9FF71C346
:10527000EAFF020EF3CFEBFF030E11C0EBFF70C38A
:10528000E9FF71C3EAFF060EE926000EEA22EECF1F
:105290005FF3EDCF60F385EC33F0F3CF10F0F4CF94
:1052A00011F070C3E9FF71C3EAFF060EF3CFEBFF05
:0852B000070E11C0EBFF120014
:0852B800140E0101E76FE86B21
:1052C0000101080EE56F040EE66FFDEC1AF0F00E1A
:1052D00004010815400801E0ACD00F0E0815040DBC
:1052E000F350106E116A140E105E000E115A10C0A9
:1052F0001CF41050140801E29CD01C5100080BE271
:105300001C510101E76FE86B01011D0EE56F040EF2
:10531000E66FFDEC1AF012C400F413C401F40401AA
:10532000126B136B140E0301676F686B0301080E99
:10533000656F040E666FE5EC33F0F3CF04F4F4CF41
:1053400005F40401041F051F1C51000813E21C5141
:105350000301676F686B03011D0E656F040E666FB6
:10536000E5EC33F0F3CF06F4F4CF07F40401061FA5
:10537000071F02D0066B076B040E0301676F686B93
:105380000301040E656F040E666FE5EC33F0F3CF96
:1053900002F4F4CF03F40301080E536F040E546FAC
:1053A000BBD804010251001944E10351011941E144
:1053B000F00E081540083DE10301465147110CE08D
:1053C00046C3E9FF47C3EAFF18C4EEFF19C4EEFF66
:1053D0001AC4EEFF1BC4EEFF48C3E9FF49C3EAFF4E
:1053E000060EE926000EEA2214C4EEFF15C4EEFFF5
:1053F00016C4EEFF17C4EEFF4AC3E9FF4BC3EAFF32
:1054000011C4EFFF04011C51126E136A12500A5DA1
:10541000106E13500B59116E140E105E000E115ABF
:105420004CC3E9FF4DC3EAFF10C0EEFF11C0EDFF12
:10543000010C5CEC1BF0000C0401450E8B6F8C6BB7
:10544000140E0301512504018D6F000E030152213A
:1054500004018E6F0301822B000E832382C38FF41D
:1054600083C390F40401916B926B640E936F50C3ED
:1054700094F4956B966B00C297F401C298F402C243
:1054800099F403C29AF44EC3E9FF4FC3EAFF060E34
:10549000E926000EEA22EECF9BF4EECF9CF4EECF8D
:1054A0009DF4EFCF9EF403018B0E536F040E546FE7
:1054B00033D8140E0301676F686B03018B0E656FA1
:1054C000040E666FE5EC33F0F3CF95F4F4CF96F469
:1054D000140E030151250101F26F000E0301522148
:1054E0000101F36F0101F16B4EC3E9FF4FC3EAFF06
:1054F0004EC3EFF14FC3F0F172EC1CF0140E01013A
:10550000E36FE46B01018B0EE16F040EE26F93EC2D
:105510001AF0F36AF46A120053C3E9FF54C3EAFFB6
:10552000020EE926000EEA22EECF5FF3EDCF60F324
:1055300085EC33F0F3CF10F0F4CF11F053C3E9FF53
:1055400054C3EAFF020EF3CFEBFF030E11C0EBFFD3
:1055500053C3E9FF54C3EAFF040EE926000EEA2212
:10556000EECF5FF3EDCF60F385EC33F0F3CF10F0C7
:10557000F4CF11F053C3E9FF54C3EAFF040EF3CF95
:10558000EBFF050E11C0EBFF53C3E9FF54C3EAFF65
:105590000A0EE926000EEA22EECF5FF3EDCF60F3AC
:1055A00085EC33F0F3CF10F0F4CF11F053C3E9FFE3
:1055B00054C3EAFF0A0EF3CFEBFF0B0E11C0EBFF53
:0255C0001200D7
:0E55C200080E0101E76FE86B0101000EE56FB6
:1055D000040EE66FFDEC1AF002C42EF403C42FF49F
:1055E0000401026B036B080E0301676F686B030114
:1055F000000E656F040E666FE5EC33F0F3CF28F410
:10560000F4CF29F40401281F291F080E106EE7C2E9
:10561000E9FFE8C2EAFFE850EF5EE7C2E9FFE8C24F
:10562000EAFFEF500101E76FE86BE5C2E5F1E6C282
:10563000E6F1FDEC1AF0E7C2E9FFE8C2EAFFEF503D
:105640000301676F686BE5C265F3E6C266F3E5ECDC
:1056500033F0F3CF2AF4F4CF2BF404012A1F2B1FCD
:10566000040E0301676F686B0301280E656F040E5B
:10567000666FE5EC33F0F3CF2CF4F4CF2DF4020198
:10568000000EF76F040EF86F7AD8E3C2E9FFE4C2A8
:10569000EAFF00C4EFFFE9C2E9FFEAC2EAFF04C47F
:1056A000EEFF05C4EDFFEBC2E9FFECC2EAFF06C462
:1056B000EEFF07C4EDFF04012E512C1902E12F511A
:1056C0002D1901E0000C010C0401016BEFC200F484
:1056D000026B036BF3C204F4F4C205F4F5C206F4E2
:1056E000F6C207F40201F251E66EE66AF0C2E6FF86
:1056F000F1C2E6FF080EE66E040EE66EBBEC32F079
:10570000106E060EE15E10500201000EF76F040EDF
:10571000F86F35D8080E0201F2250301676F686B38
:10572000000E68230301000E656F040E666FE5EC42
:1057300033F0F3CF02F4F4CF03F4080E0201F225A4
:105740000301516F526B000E52230301010E506F83
:10575000EDC24EF3EEC24FF31CEC2AF0080E02012C
:10576000F2250101E36FE46B000EE4230101000E5A
:10577000E16F040EE26F93EC1AF0D6EF1CF0F7C263
:10578000E9FFF8C2EAFF040EE926000EEA22EECF96
:105790005FF3EDCF60F385EC33F0F3CF10F0F4CF8F
:1057A00011F0F7C2E9FFF8C2EAFF040EF3CFEBFFF6
:1057B000050E11C0EBFFF7C2E9FFF8C2EAFF060EC3
:1057C000E926000EEA22EECF5FF3EDCF60F385EC21
:1057D00033F0F3CF10F0F4CF11F0F7C2E9FFF8C2C5
:1057E000EAFF060EF3CFEBFF070E11C0EBFFF7C287
:1057F000E9FFF8C2EAFF020EE926000EEA22EECF28
:105800005FF3EDCF60F385EC33F0F3CF10F0F4CF1E
:1058100011F0F7C2E9FFF8C2EAFF020EF3CFEBFF87
:08582000030E11C0EBFF1200A2
:085828003F0EC716C66AC56AEF
:10583000C68694869488C68A26C3C8FF120028C3E9
:10584000A9F429C3AAF4C750040B01E0010E106E9D
:105850001F0EC5141010F7E1C580C5B0FED7A1B664
:10586000010C27C335F301D9000901E0010CC75031
:10587000040B01E0010E106E1F0EC5141010F7E1AD
:10588000C5BC21D0AAC435F3F0D8000901E0010C51
:10589000C750040B01E0010E106E1F0EC51410104E
:1058A000F7E1A9C435F3E1D8000901E0010CC750C4
:1058B000040B01E0010E106E1F0EC5141010F7E16D
:1058C000C5AC000C020C020C2BC328F32CC329F32B
:1058D0002AC327F3B4DF0401786FE85005E187D8C5
:1058E0000401786FE85002E078511200C750040BB1
:1058F00001E0010E106E1F0EC5141010F7E1C580F7
:10590000C5B0FED7A1B6010C03012A290301356FEA
:10591000ACD8000901E0010CC750040B01E0010EF6
:10592000106E1F0EC5141010F7E1C5AC000C020C70
:10593000C750040B01E0010E106E1F0EC5141010AD
:10594000F7E12DC335F391D8000901E0010CC750F0
:10595000040B01E0010E106E1F0EC5141010F7E1CC
:10596000C5AC000C020CC750040B01E0010E106E18
:105970001F0EC5141010F7E1C584C5B4FED7000C86
:105980007BD8C5B6FED7C59AC588C5B8FED7C9505D
:10599000120072D8C5B6FED7C58AC588C5B8FED76D
:1059A000C584C5B4FED7000C2FC32BF330C32CF332
:1059B0002EC32AF389DF0401776FE85016E1030153
:1059C0003351330700090EE0DBDFE66E030131C31C
:1059D000E9FF32C3EAFF312B000E3223E552E750D4
:1059E000EF6EEDD7D6DF0401776F77511200C75005
:1059F000040B01E0010E106E1F0EC5141010F7E12C
:105A0000C584C5B4FED7A1B6010C000CC750040B69
:105A100001E0010E106E1F0EC5141010F7E1C580D5
:105A2000C5B0FED7A1B6010C34C335F31ED80009AA
:105A300001E0010CC750040B01E0010E106E1F0EB7
:105A4000C5141010F7E1A1B6010CC5BC03D00401C8
:105A5000A96B03D00401040EA96FC584C5B4FED799
:105A6000A1B6010C0401A951120035C3C9FFC6BE7D
:105A7000FF0CC7B0FED7000CC586C7A0FED7C95023
:025A8000120012
:0E5A8200485454502F312E3020353033200D33
:105A90000A0D0A5365727669636520556E617661F9
:105AA000696C61626C650D0A000D0A0D0A004854AC
:105AB00054502F312E3020323030204F4B0D0A43BE
